:400000000080002011000000090B0000090B000008B500F03FFE00F091FD0000F8B572B680260024344DF6002C60211C321C334801F090FE211C321C314801F08BFEEE22CA
:40004000304B12061A60992202213C202E4B12041A602E4A2E4E13782E4F0B432E4913700B788343283803430B70162113780B4313700622294B1A60294A2A4B1A60122342
:40008000336001F091FA284801F06AFB012001F097FA202001F0B0F9244A254B02211A608023244ADB053B601368FA200B431360214A224BC0001A600822214B1C602B68DA
:4000C00093432B6001F02CFA1E4801F08BF980221D4B12061A6080221C4B12031A608023DB053B6011231A4A33600E3B1360194A1360194B1C60F8BD6CF02E4000300F40C0
:4001000000400F400000024000500F4000700F40300010400C020B4001700F40000004408E6DD80008000440001BB7000600008004010B4078002E406A2D00007C002E4085
:4001400064F02E40DC05000008010B4000010B403000304030003140000E3F4010B5064C2378002B07D1054B002B02D0044800E000BF0123237010BDF811002000000000D4
:40018000F846010008B5084B002B03D00748084900E000BF07480368002B00D108BD064B002BFBD09847F9E700000000F8460100FC110020C00C002000000000002210B5F3
:4001C000144CA54493B28B420AD2835C402B01D9373B00E0303B6C460434A3540132F1E76B46002049084900013101AA053351188B4208D05A1E12781C781201A218801872
:4002000080B20233F4E74042C0B286239B009D4410BDC046E8FDFFFF031C303BDBB2021C181E09280CD9131C613B052B01D8573A05E0131C413B0020052B01D8373AD0B21B
:400240007047F0B5012485B004400326002C1DD10D1C0393430802920193019B9C4212D2039B66001B19A85D0093FFF7D5FFAE19071C7078FFF7D0FF3F01009B38430134F5
:400280001870A4B2E9E70026029B1C60301C05B0F0BD0000F0B5171C1E1C184C0131A54402AC231C01AA0138FFF7CBFF2378051C3B706278A17812020A435B02D3183380CB
:4002C000E37822791B021343C89ACA991380019BE418013C22780A70C89A1288911D994205D10D21C998694401F02BFD00E00425281CC3239B009D44F0BDC046F4FCFFFF54
:4003000070B50F4C161CA54402AC1D1C01AA231CFFF797FF00280FD16379C69A137023781A0663781B041343E2781343A27812021343336023792B70C2239B009D4470BD67
:40034000F8FCFFFF30B5041C85B00320062C0CD90D7802303A2D08D1201C089C0094099C01940A9C0294FFF795FF05B030BD0000F0B5754C0021A544744A4BA801F0EAFC12
:400380008022002152000BA801F0E4FC4BA870490C2200F0BFF9112302AA9B1800930C204BA908AA06ABFFF7ABFFC4B2002C05D0C1B2684801F0D6FC0027BFE0089B09A862
:4003C0001A0E02701A0C42701A0A827062490422C37001F0A7FC071E03D0604801F03EFDEAE702AB5B7C5E48002B1CD1C8210AAC201C8902042200F08DF923786278A0786F
:400400001B029B1800061B18E0785649000418180C3801F0D9FA3C1C049009E03378059A934203D0504801F019FD87E00134A4B2049B9C4243D24B4D211C4C4801F092FCAE
:40044000291C61434A4B2A1CC9184BA800F062F9262002ABFF30C0184649FFF7AFFE05900599454801F07EFC162302AA9B1800930BAB019313261223B6189B181A1C281C64
:400480004BA907AB0296FFF75DFF051C02AB997C3A4801F067FC02AB998A394801F062FC02ABD98A374801F05DFC3178364801F059FCEBB2002BB1D0E9B234483CE0344815
:4004C00001F0CCFC0024049B9C4229D2254D284B291C61434BA8C9182A1C00F01BF9162302AA9B18009313239B18122202930BAE02ABD218019607AB281C4BA9FFF722FFF6
:40050000C3B2002B02D0C1B2224815E002AB988A311C00F0E9FE00280CD10134A4B2D2E71D4801F09BFC80221C4B01271A6000F04DFF03E00A211A4801F014FC381CD123AE
:400540009B009D44F0BDC046BCFCFFFF120200000021030000470100FC46010033470100534701000D02000062480100774701000C2103000A0200008D470100AD4701003E
:40058000CD470100ED4701000D4801002D48010082480100AA480100DF480100C00000200849010008B50021022000F01DFB004708BD38B5051C0824002001F037F801205E
:4005C00000F010FF6BB20120002B00DB002001F041F8012000F006FF013C012001F026F86D000220E4B2EDB200F0FCFE002CE3D1201C01F01BF80A2000F0F4FE38BD38B52F
:4006000008250024002001F011F86400012000F0E9FEE4B201F016F8002801D001231C43012000F0DFFE013D012000F0FFFFEDB2022000F0D7FE002DE4D1281C00F0F6FF16
:400640000A2000F0CFFE201C38BD08B5FF2802D1FFF7D5FF02E0FFF7ACFF002008BD08B5002000F0E3FF002000F0F4FF08BD10B53524022803D0203C032800D0103C002024
:4006800000F0C8FF201CFFF7E0FFFF20FFF7DDFF041C012000F0BEFF201C10BD10B5002000F0B8FF9020FFF7D0FF0020FFF7CDFF0020FFF7CAFF0020FFF7C7FFFF20FFF7D7
:4006C000C4FF000284B2FF20FFF7BFFF204384B2012000F09FFF201C10BD000010B5012000F098FFFFF7BBFFFFF7D8FF084B98420DD10320FFF7BBFF0124204007D100F0C6
:4007000089FFB720FFF7A1FF201C00F083FF10BD13EF000070B50D1C041C0020161C00F079FF0320FFF791FF280CC0B2FFF78DFF280AC0B2FFF789FFE8B2FFF786FFA61958
:40074000B44205D0FF20FFF780FF20700134F7E7012000F05FFF70BD38B50B4C201C00F0B7FA0A4D281C00F0B3FA094800F0B0FA0849094A094801F0F5FA281C00F0A8FAEC
:40078000201C00F0A5FA38BD324A01003249010084490100BC490100C849010099490100F0B5051C0C1C85B0002C1BD0231C142C00D91423102201A90A810E4ACB8050781C
:4007C0008B809EB213780002184301950EF01AFB071E03D0084801F041FB04E0A41BA4B2AD19E1E7271C054801F038FB381C05B0F0BDC0463C230020D1490100F0490100CD
:4008000038B5051C0C1C044801F028FB281C211CFFF7C6FF38BDC0462A4901001FB5031C0C1C282800D185E030D822286DD016D8032865D007D8012850D0022800D0B2E045
:4008400009785B48B1E004285CD0212800D0AAE0E07809786278A378009056485AE025285BD00BD8232852D0242800D09BE0E07809786278A37800904F484BE026284FD0A6
:40088000272800D08FE009784C488EE04C2867D010D82C285BD007D8292855D02A2800D081E00978464880E0412852D04548422B76D078E0FA2872D006D84E2858D057284C
:4008C00071D14988404870E082225200904264D00622FF323D48934262D064E00223002403A80370447002F073FB201C00F0A8FA011EA14202D0364801F034FA35484FE082
:4009000035484DE0097835484FE0354848E0354809684AE001F026FA49E00978324844E0324C3348217801F01DFA23783148042B3DD135E0304801F091FA002000F080FA4C
:40094000011E2E4833D030E009782D482DE02D4826E02D4B2D4859781A7801F003FA26E089892B4801F0FEF920680EF0A9FA1EE08989284801F0F6F9A189274801F0F2F9A2
:400980002189264801F0EEF96189254801F0EAF921896068FFF734FF09E0224800E0224801F05CFA03E0191C204801F0DBF91FBD354A01007B4A01000D4B0100AE4B0100E3
:4009C000314C0100A94C0100F54D0100CF4D0100114A0100CD4D01004E4A01005F4A0100BF4A0100E14A0100504B01003A2300206D4B0100A24B0100D44B0100F74B010010
:400A00001B4C01005D4C01003C230020834C0100C94C0100E94C0100134D01004A4D0100764D0100AA4D01002D4E01004C4E0100F8B5FFF753FE62B6224C201C00F048F956
:400A4000201C00F045F9204D281C00F041F91F4800F03EF91E4800F03BF91E4F1E4E1F4A311C381C01F07EF9281C00F031F9201C00F02EF9201C00F02BF9194800F088F9FB
:400A8000184B1B68402B17D1201C00F021F9281C00F01EF9144800F01BF9311C0F4A381C01F060F9281C00F013F9201C00F010F9FFF75EFC002803D1FFF74EFEFFF772FD60
:400AC000FEE7C046324A010032490100604E01009C4E010099490100BC490100C84901001D080000C0000020AF4E010070B50E1C151C0C1CA31BAB4204DA207800F0C0FD04
:400B00000134F7E7281C70BDFEE70000031C10B580240849084A0868E400C3189A1AA24201DC0B6005E001F0D1F80C2303600120404210BDC40C00204823002070B5104978
:400B4000104B01394A1C15D000221E685C689D68A018AA4203D0B058A0500432F8E7021CDC68151AA54202D0002520C2F9E710330139E7E701F0B0F8FFF75AFFFEE7C04651
:400B800001000000C45101000121104A10B51368141C8B43136000239A000D49032B01D80C4989580C4801338150302BF4D1FFF735FA0022094B1A60094B1A68002A00D142
:400BC0001A60012223681343236010BD00001040090B00000000000000000020C8000020C000002000470000013808B50B282FD80902494200F0DEFE06080A0C0E1014129A
:400C000016191B20174B13E0174B16E0174B0AE0174B12E0174B0BE0174B09E0174B02E0174B00E0174BC91816E0174B05E0174BC9180878C0B213E0154BC9180A784878B4
:400C40008B7800021B041843CB7810431B0606E0002000F0B9FB00210B7848780002184308BDC046C0FF0300C1FF0300C5FF0300C9FF0300D0FF0300D1FF0300D6FF030074
:400C8000D2FF0300D4FF0300D8FF0300DCFF0300E0FF03000C4B10B51A68102313400B4A00D113601368802B0DD100240220211C1460FFF799FFA04205D0211C0220FFF79E
:400CC00093FFFFF78FFF10BD00030B40C000002038B50124051C0078002805D000F0D0FC285D0134E4B2F7E738BD000070B51C4B002905D1DE7F191C00231A1C1C1C11E0BD
:400D00001A1C3F3216782033F5E7002C11D1CA5C002A24D00133DBB2CD5C083D012D04D9D318DBB2B342F0D301E00124FAE7002C15D0D2180133DBB2D4B21A1C06E0D51A5F
:400D4000455D002D04D08D540132D2B2A242F6D3944204D900238B540132D2B2F8E770BDD00C002008B50023044A1370044A1370044A137000F03AFA08BDC0463F23002053
:400D80003B2300203E23002008B500F02FFA08BD30B591B0041C1E490BA8142200F0D1FF1C4D2B78002B03D1FFF7DCFF01232B700120002C29D0184B00211C601B2408A873
:400DC00005AA06AB0181117016311C805C806944173C426008931C7101F05CFF002814D10523AE220093019002900C490C4812010BAB01F0BDFF002807D10122094B0A4818
:400E00001A7015218F320EF07BFD11B030BDC046C84E01001812002020230020D0000020D50F00003A230020DC4E010008B502F043F80022014B1A7008BDC0463A2300209D
:400E4000021C10B50120022A2FD8184B1B78042B29D1174C2178194225D1164B002A08D1191CA02050310A80596C80000880A0300BE0012A0AD1191C962050310880C82001
:400E8000596CC00008808020C00148800A494033181C0A700CF034FE002806D1042223781343237001E00420FF3010BD3A2300203F230020D00C00203E23002008B50CF07B
:400EC000D1FE0821024A13780B43137008BDC0463F2300207047000010B50123002818D00D4B9A6B998E00235468C9B2DAB28A4206D2C25C002A02D0E2540133F6E7E254B0
:400F0000041C0021FFF7F2FE201C0121FFF7EEFE0023181C10BDC046DC4E0100021C30B50120002A11D0094B9B6B5C681D780023D9B2A94203D300235354181C05E0E05C85
:400F40000028F8D0D0540133F2E730BDDC4E0100437800781B02184370470170090A41707047000038B5838900250B2B1BD1041C291C0430221C35330EF0DAFC051E0DD196
:400F80006068FFF7E5FF094B1B68820702D58220400001E00620FF30211C98470121044A13788B431370281C38BDC046202300203F230020002382799A4208D1821D0378C7
:400FC000002B03D101309042F9D100E00123181C70470000F0B501267A4B85B01A78041C32430D1C1A701F1C28285FD010D8062867D006D8B04222D0052800D0D3E00A789B
:401000005CE0262800D180E07DD821286AD0CAE0432800D199E008D841284AD0422800D0C1E00022684B5A7049E04F2800D1B0E0502800D1B4E04C2800D0B4E08DE0072394
:4010400003AE33700023301C737001F0C1FF0723301C3370747001F0BBFF5C4B1B68181C0093FFF7A7FF019000280AD0009801F05DFF564B00211868FFF72CFF534B1868EB
:4010800007E0534801F052FF51480199FFF722FF4F48211CFFF71EFF03200CF0E1FB3F2333700023301C73700CF0F8FB0422494B05E00222444800F044FE0022464B1A703C
:4010C00071E00B78002B6ED14B78002B07D10822424BDA8088329A80414A4B601A603B78012221E01B789B065DD43E490B78102B01D10B3BCB70344B18780CF0C1FC012298
:401100003B78134319E00222D1E7324B19789C46022948D03A78324245D004223878104204D0032119703B78934306E008203E78064204D01A703B7883433B7033E0032964
:4011400031D10423624613702DE04988162900D9172128880DF022FE25E0081CFFF702FF3B78334202D0281C00F042F83B78DB0719D4002809D0122303A98B70AB89C870CD
:4011800028680B800DF000FE0DE028680DF098FE09E01B78334206D0081C00F067F802E0081C00F07BF811233A781A4208D001223B78201C93433B700B4B291C1B689847BC
:4011C00005B0F0BD3F2300203C230020240D0020280D00203A2300203B2300201C120020B00B00208C0E0020202300207047000013B58389021C152B11D16C331748FF33AA
:40120000C35806210193DB0405D50021101D40230EF08EFB011C124A0120137819E00021142B18D12C3304300EF082FBC623011C01200A4A5B00D3580A4C5A680A4BA070F4
:401240001A60D37892781B021343054A07332380137883431370081C16BDC046DC4E01003F230020241200204023002008B543681B89142B0CD1007A012804D10DF0D4FD3B
:401280000022044B1A800121034A13788B43137008BDC046241200203F23002043681A89142A1AD1427A012A12D108211A680B4BFF311A60D37892781B02134307339BB2FA
:4012C000074A8B4201D8138000E01180012393700121044A13788B431370704740230020241200203F2300200023F0B5C7B0029303932C4B98424FD800294DD08022051C83
:40130000520006A800F01DFD274B9D4201D8274B00E0274B0493FF23264C2749274A04AE736026600A60C04622680191120F0F2A02D12268134005E022680023120F0A2A21
:4013400000D023680293029F002F27D100F011FA0397029B002B18D1194A2D040492049A184915430495019D2660124A2960C0462168090F0F2902D11368DBB204E0116835
:40138000090F0A2900D013680293039B002B00D1039300F0F2F901E004230293029847B0F0BDC046FF030000FF010000B6D70000B6D70001080010400400104004000080C9
:4013C000B6D800000500008001BE7047034A044913689BB20B4313607047C0460CED00E00400FA0508B5034B1B7A584300F0B8F908BDC046940E0020F0B5051C87B000F052
:40140000B8F9EB1E049003932D2B5CD8314B1B789D4204D8304B1C78304BE4B21EE0304B1B789D4204D82F4B1C782F4BE4B215E02E4B1B789D4204D82D4B1C782D4BE4B297
:401440000CE02D4B1B789D4204D82C4B1C782C4BE4B203E02B4B1C782B4BE4B21B78039ADBB20193294B2A4F9A5C059302922F2A04D92A2D02D919263E6008E03F233E6814
:401480001E40029BB34205D2214B029A1A60052000F066F91C4B1F4AED182B780520DBB213601D4B019A1C601C4B1A60FFF79AFF029BB34208D9059B039A05209B5C3B607C
:4014C00000F04EF900E001BE049800F056F907B0F0BDC04640F3FF0F41F3FF0F42F3FF0F43F3FF0F44F3FF0F45F3FF0F46F3FF0F47F3FF0F48F3FF0F49F3FF0F4AF3FF0FCF
:401500004BF3FF0F4CF3FF0F4DF3FF0FD85001002CFF0B4028FF0B401CFF0B4020FF0B4001210F4A10B51368041C0B43802113600C4A0D4B09021A600C4A13680B431360E1
:40154000002801D100200AE00120FFF74BFF084B1B68DB07F6D4013C002CF5D1102010BD60F02E400220000078002E4010002E400C002E4001200A4A13688343136002234C
:4015800011689943116007492E330A689A43203B1A430A6007220B68934303430B60704700F02E4000FF2E4008B5FFF7E3FF8021024A090613680B43136008BD00F02E40AE
:4015C0000122124B70B51C681440002815D0904216D1022507261968A94319600C490A68B2432A430A600A682E35AA43103D2A430A601A681043186005E0FFF7BBFF02E031
:401600000020FFF7E1FE201C70BDC04600F02E4000FF2E40012304490A689A43D2B2034013430B607047C046000004401023044900010A689A43D2B2034013430B60704723
:4016400000000440024B18688007C00F7047C0460400044008230449C0000A689A43D2B2034013430B607047000004400000000000000000000000000000000000000000F4
:40168000FEB5494652465B460EB407462E4909688A462E4A12682E48022100F095F903002A480068C0182A4900F08EF906001F3EB346234A126801219140C9430C000125CC
:4016C000002600F056F8814651460B6823400B605846043000F044F83800F040284090400B68234003430B60584600F039F80136072EF1D900200130012090400B682340B5
:4017000003430B605846063000F02AF8484600F034F8C046C046C0460EBC894692469B46FEBDC046C046C046C046C046C046C046C046C046C046C046C046C046C046C046EF
:40174000CC0C002014120020C80C0020A00E002000C20100C046C046C046C046C046C0460230800803D00138FDD1C046C046C0467047EFF3108072B6704780F31088704712
:4017800001607047016070472B4B2C4A19782C4B09021B7819432B4B1B7812781B021343294A934204D1072909D1284B033906E0D4221201934202D1042900D1234B244ABE
:4017C0001360244B244A1960244B1B7812781B021343234A134200D1224B234A23491360234A0B7812781B021343224A934204D0214A934201D0052B00D1204B204A136079
:40180000204B214A1B681268AA2A14D11F2B12D90B780E2B0FD11D4B1D4A1B7812781B0213431C4A13601C4B1C4A1B7812781B0213431B4A1360704759F1FF0F5EF1FF0F72
:4018400058F1FF0F5FF1FF0F580B0000580D00006C002E4074002E405AF1FF0F5BF1FF0FFFDFFFFF0220000078002E405DF1FF0F5CF1FF0F0F0F000005050000050F0000A5
:4018800080002E40EC0F00F0E00F00F06DF2FF0F6CF2FF0F84002E406FF2FF0F6EF2FF0F94002E4008B5FFF79DFD08BD08B500F05FF808BD08B500F063F808BD08B500F071
:4018C0005FF8034800F02AF8032000F02DF808BDAD19000008B5024800F036F808BDC046AD19000000487047010200002B2070472B2070472B2070472B2070472B207047AF
:401900002B2070472B2070472B2070472B2070472B2070472B20704770470000014B18677047C0460000002010B5041CFFF721FFC021044AA40113688B4323431360FFF755
:401940001CFF10BD0CE400E010B58024054B64011C60054B18670320FFF7E6FF034B1C6010BDC04680E100E00000002000E100E08022024B52011A607047C04600E100E04F
:401980008022024B52011A607047C04680E100E008B5FFF7EEFE0421034A13688B43136030BFFFF7EAFE08BD10ED00E008B512F08FFE08BD02B4714649084900095C49006B
:4019C0008E4402BC7047C046002243088B4274D303098B425FD3030A8B4244D3030B8B4228D3030C8B420DD3FF22090212BA030C8B4202D31212090265D0030B8B4219D3B7
:401A000000E0090AC30B8B4201D3CB03C01A5241830B8B4201D38B03C01A5241430B8B4201D34B03C01A5241030B8B4201D30B03C01A5241C30A8B4201D3CB02C01A524163
:401A4000830A8B4201D38B02C01A5241430A8B4201D34B02C01A5241030A8B4201D30B02C01A5241CDD2C3098B4201D3CB01C01A524183098B4201D38B01C01A52414309B7
:401A80008B4201D34B01C01A524103098B4201D30B01C01A5241C3088B4201D3CB00C01A524183088B4201D38B00C01A524143088B4201D34B00C01A5241411A00D20146C6
:401AC000524110467047FFE701B5002000F0FCF802BDC0460029F7D003B5FFF775FF0EBC4243891A1847C04603460B437FD4002243088B4274D303098B425FD3030A8B4228
:401B000044D3030B8B4228D3030C8B420DD3FF22090212BA030C8B4202D31212090265D0030B8B4219D300E0090AC30B8B4201D3CB03C01A5241830B8B4201D38B03C01AF4
:401B40005241430B8B4201D34B03C01A5241030B8B4201D30B03C01A5241C30A8B4201D3CB02C01A5241830A8B4201D38B02C01A5241430A8B4201D34B02C01A5241030A79
:401B80008B4201D30B02C01A5241CDD2C3098B4201D3CB01C01A524183098B4201D38B01C01A524143098B4201D34B01C01A524103098B4201D30B01C01A5241C3088B423B
:401BC00001D3CB00C01A524183088B4201D38B00C01A524143088B4201D34B00C01A5241411A00D201465241104670475DE0CA0F00D04942031000D34042534000229C468D
:401C000003098B422DD3030A8B4212D3FC22890112BA030A8B420CD3890192118B4208D3890192118B4204D389013AD0921100E08909C3098B4201D3CB01C01A524183095E
:401C40008B4201D38B01C01A524143098B4201D34B01C01A524103098B4201D30B01C01A5241C3088B4201D3CB00C01A524183088B4201D38B00C01A5241D9D243088B4273
:401C800001D34B00C01A5241411A00D20146634652415B10104601D34042002B00D54942704763465B1000D3404201B5002000F00BF802BD0029F8D003B5FFF715FF0EBC21
:401CC0004243891A1847C0467047C046014B18687047C046F01100200E4B70B500251E1C0D4CE41AA410A54204D0AB00F35898470135F8E713F054FA084B00251E1C084C0C
:401D0000E41AA410A54204D0AB00F35898470135F8E770BDAC510100AC510100AC510100B451010030B50024944208D0035D651C0C5DA34201D0181B02E02C1CF4E7002010
:401D400030BD002310B5934203D0CC5CC4540133F9E710BD031C8218934202D019700133FAE770470FB40B4B13B51C68002C05D0A369002B02D1201C00F03EFA05AB201C50
:401D8000A168049A019300F0E7FB16BC08BC04B01847C046F011002070B5051C0E1C002804D08369002B01D100F026FAAC68A3891B0702D52369002B19D1281C211C00F096
:401DC000AFF8002813D00120404245E03178002B1BDAA269934211DA221C281C00F048F8013042424241D0B20028ECD10136A3683278013BA360002AE8D10CE02368197076
:401E0000236819780A2903D1E6E723681970236801332360EAE7002B17DAA269934208DB0A2322681370236819780A2911D1281C01E0281C0A21221C00F01AF801304242B8
:401E40004241D0B2002806D0BDE70A23226813702368013323600A2070BD000008B5034B011C1868FFF798FF08BDC046F011002070B5051C0E1C141C002804D08369002B14
:401E800001D100F0B9F9234B9C4201D16C6808E0214B9C4201D1AC6803E0204B9C4200D1EC68A369A360A3891B070AD52369002B07D023682269F6B2981A636998420FDB89
:401EC00008E0281C211C00F02BF80028F1D0012040421DE0281C211C00F020F90028F6D1A3680130013BA36023685A1C22601E706369984205D0A389301CDB0708D50A2EEE
:401F000006D1281C211C00F009F90028DFD1301C70BDC0460C5101002C5101004C510100354B70B51D68061C0C1C002D05D0AB69002B02D1281C00F05FF9304B9C4201D147
:401F40006C6808E02E4B9C4201D1AC6803E02D4B9C4200D1EC68A3899AB2110723D4D10607D409220120326037321343A381404240E0530713D5616B002908D0231C4433A9
:401F8000994202D0301C00F021FA002363632422A3899343A38100236360236923600822A3891343A3812369002B0BD1A023A2899B00134080229200934203D0301C211C2F
:401FC00000F0ACF90123A289134005D00023A36063695B42A36103E0910700D46369A36000202369834205D1130603D540231A43A281013870BDC046F01100200C5101001E
:402000002C5101004C510100F7B58A89051C0C1C13075ED44B68002B02DC0B6C002B1ADDE76A002F17D000232E682B6080235B011A4001D0626D15E0281C216A0123B84750
:40204000021C431C0ED12B68002B0BD01D2B01D0162B02D12E6000205EE04021A3890B43A38159E0A3895B0706D56368D21A636B002B01D0236CD21A0023281C216AE76A72
:40208000B847A389421C06D12A68002A03D01D2A01D0162A19D10022626022692260DB0405D5431C02D12B68002B00D16065616B2E600029CFD0231C4433994202D0281CF6
:4020C00000F084F90020606326E040221343A38122E00F69002FBED00B680F60DB1B01930023920700D14B69A360019B002BB2DD281C216A3A1C019BA66AB047002806DC9F
:4021000040220120A38940421343A38104E0019B3F181B1A0193E8E7FEBD000038B50B69051C0C1C002B01D100201CE0002804D08369002B01D100F05FF80B4B9C4201D1D5
:402140006C6808E0094B9C4201D1AC6803E0084B9C4200D1EC680C22A35E002BE4D0281C211CFFF751FF38BD0C5101002C5101004C51010008B5024900F0AEF808BDC046A5
:402180001D210000002310B5041C03604360836081814366C281036143618361191C08225C30FFF7D7FD054B24626362044BA362044BE362044B236310BDC046A92A000063
:4021C000D12A0000092B0000352B000070B568254B1E5D430E1C291C743100F03DF9041E08D000212A1C016046600C30A0606832FFF7B0FD201C70BD836913B5002B28D139
:402200008364C3640365134B134A1B6882620193984201D101238361041C00F01FF86060201C00F01BF8A060201C00F017F80421E06000226068FFF7A5FFA068092101221F
:40224000FFF7A0FFE06812210222FFF79BFF0123A36113BD0851010075210000F8B51D4B061C1D68AB69002B02D1281CFFF7C4FF4835AC686B68013B05D40C22A75E002F0C
:4022800010D06834F7E72B68002B06D1301C0421FFF79CFF2860002801D02D68E9E70C23336016E00123201C5B42E3810233A38167662760A760676027616761A7615C30CF
:4022C000391C0822FFF746FD201C6763A763A764E764F8BD08510100F7B5041C071C002601914834002C16D06368A5680093009B013B00930DD4AB89012B08D90E22AB5E4C
:40230000013304D0381C291C019B984706436835EDE72468E6E7301CFEBD0000F0B58B8991B09B0706D50B1C47330B600B6101234B6145E00C1C0E23C95E061C002904DADA
:402340008023A5891D4010D10CE001AA00F01EFC0028F5DBF023029D1B021D40194BED186B425D418027FF0001E000254027301C391C00F071F800280CD1A3899A051FD405
:4023800002221343A381231C4733236023610123636115E080220C4BB362A38920601343A38120616761002D0AD00E23E15E301C00F0FEFB002803D00122A3891343A381F5
:4023C00011B0F0BD00E0FFFF7521000030B500293ED004390B68002B00DAC9181D4A1368141C002B02D14B60116031E099420DD208680A189A4203D11368C3180B60536894
:402400004B60216024E08A4203D8131C5A68002AF9D11D685C198C420BD10968691858181960904214D110685268091819605A600EE08C4202D90C23036009E008680C187E
:40244000944203D114685268001908604A60596030BDC0461C230020032370B5CC1C9C430834051C0C2C01D20C2405E0002C03DA0C2300202B6042E08C42F9D3204A136833
:40248000101C191C002913D00A68121B0DD40B2A02D90A608B181FE08B4202D15A6802601BE04A685A600B1C17E00B1C4968E9E7144E3368002B03D1281C00F0E3FA306085
:4024C000281C211C00F0DEFA031C421CD0D00322C61C964386420AD11C60181C07210B301A1D8843821A0AD05142995007E0311A281C00F0C7FA431CBAD0331CECE770BD8D
:402500001C23002018230020936810B5013B9360002B05DA9469A34208DBCBB20A2B05D01368581C10601970C8B201E0FFF7A0FC10BDF8B5061C0F1C141CD518AC4208D01D
:402540002178301C3A1CFFF7DFFF0134431CF5D100E00020F8BD0000F0B59FB0061C0F1C02920593002804D08369002B01D1FFF743FE794B9F4201D1776808E0774B9F42D3
:4025800001D1B76803E0764B9F4200D1F768BB891B070AD53B69002B07D0002306AD6B6120336B761033AB763DE0301C391CFFF7B7FC0028F1D001204042CAE0059A111DE6
:4025C00012680591002A7EDB0992013423782E2B00D189E021786348032200F00FFB002808D0604B0134C01A40238340181C2B68184328602178631C5B4806220293297646
:4026000000F0FCFA002800D191E0584B002B00D084E00722059B07339343083305936B69039A9B186B61029C2378002B04D1029BE31A049311D003E0252BF8D00134F3E757
:40264000049B301C391C029AFFF773FF431C7BD06A69049B944663446B612378002B73D00122002352426A6002A95432521801342B60EB60AB601370AB6521783C48052278
:4026800000F0BCFA002809D0394B0134C01A01238340181C2B6818432860EEE72B68DA0604D55322202102A8121811701A0704D553222B2102A81218117022782A2A00D154
:4026C0007CE7099B05E05242EA60022213432B607BE72278303A092A04D80A214B4301349B18F6E7099371E763782A2B09D1059B02341A1D1B680592002B0DDA01235B4220
:402700000AE0002301342278303A092A04D80A214B4301349B18F6E707935BE705AB0093301C291C3A1C134B00E000BF07E005AB0093301C291C3A1C0E4B00F08BF8039053
:40274000039B013300D06AE7BB895B0600D532E70B981FB0F0BDC0460C5101002C5101004C5101007251010076510100000000006C51010033250000F7B5171C01930A69AC
:402780008B6800900C1C934200DA131C221C3B6043321278002A01D001333B6023689B0602D53B6802333B60062523681D401ED0231C43331B785A1E9341226892061CD5D0
:4027C0003020E1184031C870211C5A1C45310978A21840320233D1700FE0221C0123009801991932089EB047431C0ED00135E3683A689B1A9D42F0DBDAE7221C0098019940
:402800004332089DA847431C02D10120404220E006232068E1683A6803400025042B03D18D1AEB43DB171D40A3682269934201DD9B1AED180027AF420ADA221C0123009896
:4028400001991A32089EB047431CDED00137F2E70020FEBDF0B58BB006920A1C43320793059004920A7E0C1C109B6E2A00D1A8E011D8632A22D009D8002A00D1B2E0582A60
:4028800000D0C2E045310A707C4A4FE0642A1DD0692A1BD0B9E0732A00D1A7E009D86F2A29D0702A00D0B0E0202209680A43226037E0752A1FD0782A33D0A6E00E1C1A68CF
:4028C0004236111D196013683370A1E021681A68080606D4490604D5111D19600023D55E02E0111D19601568002D3BDA2D23049A6D42137036E021681A68080606D4490642
:4029000004D51568111D1960ADB202E0111D196015685A4B227E03930A276F2A1DD108271BE0221C782145321170554A19680392081D226818600D68100602D4500600D541
:40294000ADB2D30702D520231A4322601027002D03D1202322689A432260231C002243331A7002E00A27454B03936368A360002B03DB0422216891432160002D02D1049EAA
:40298000002B0ED0049E281C391CFFF7A3F8039B013E5B5C281C3370391CFFF715F8051EF1D1082F09D12368DB0706D563682269934202DC3023013E3370049B9B1B23611A
:4029C0002BE009681A68080607D4490605D5111D19601368A28A1A8004E0111D1960136862691A600023049E236116E01A68111D196016680021301C626800F0FFF8002868
:402A000001D0801B6060636803E0261C42363270012323610023049A1370079B05980093211C069B09AAFFF7A7FE431C02D10120404221E0236905980699321C079DA847F7
:402A4000431CF4D023689B0705D4099BE068984212DA181C10E00025E368099A9B1A9D42F3DA221C0123059806991932079EB047431CDCD00135EFE70BB0F0BD7D51010010
:402A80008E51010038B50023064C051C081C2360FEF73CF8431C03D12368002B00D02B6038BDC0464423002038B50C1C0E25495F00F0B0F8002803DB636D1B18636503E0E1
:402AC000A289024B1340A38138BDC046FFEFFFFFF8B51E1C8B89051C0C1C171CDB0505D50E23C95E0022022300F074F8A289054B281C1340A3813A1C0E23E15E331C00F099
:402B00001FF8F8BDFFEFFFFF38B50C1C0E25495F00F060F8A389421C03D1054A1340A38104E0802252011343A381606538BDC046FFEFFFFF08B50E23C95E00F015F808BDAB
:402B400038B5051C0020074C2060081C111C1A1CFDF7CCFF431C03D12368002B00D02B6038BDC0464423002038B50023064C051C081C236000F062F8431C03D12368002BEB
:402B800000D02B6038BDC0464423002038B50023064C051C081C111C236000F057F8431C03D12368002B00D02B6038BD4423002038B50023064C051C081C236000F04EF882
:402BC000431C03D12368002B00D02B6038BDC0464423002038B5051C0020074C2060081C111C1A1C00F042F8431C03D12368002B00D02B6038BDC04644230020C9B2821882
:402C0000904204D003788B4202D00130F8E700207047000038B5051C0020074C2060081C111C1A1C00F02AF8431C03D12368002B00D02B6038BDC0464423002058220120F2
:402C4000014B40421A6070474423002058220120014B40421A607047442300205822024B00201A607047C0464423002058220120014B40421A60704744230020582201204C
:402C8000014B40421A60704744230020006001000A000000F8B5054633480E460078002802D002242046F8BD002E5BD000242F49002D16D02A89D0070DD02868002808D0AA
:402CC00003881B3BE12B04D24088FB2801D81B2801D2012409E0900707D56868002804D1F7E70020088108604860002CDAD11F482F8907811C481B21801D01804180042130
:402D0000017119490020891C0870F80705D016480622801D2968FFF714F81449B80703D56A681148127882700F480D46801D0860001F486002F0E8FA0B48801D02F0D6FA61
:402D400028890DF0C7FE28890EF040F80346103300F012FC1F21C018890140180249308088809FE701249DE7A40E002028120020FFB585B0002768460E9D07734C481C463E
:402D80000078002802D0082009B0F0BD10990F9801900095029105A807C800F035FC0028F2D16946264603AB84460873002C19D0002115E08A00B75A082F09D990198078F4
:402DC000002805D0083FB7521878401C187005E0002915D00027B75290198770491CC9B2A942E7D360460028CED10F9800280AD0109901F0A3FD0006000E04D00120C3E7C7
:402E000001208446EEE702F0FDF92948002101610C300599016021888180022D03D3A1798171A17AC17100211EE0481C19E082008B00A75AE65ABE46BE4211D26F463E808F
:402E4000B4461E190296B678BE7001967646E6521719029EBB78B3706646A652019EBE70401CA842E3D3491CA942DED3114800906846037B22460799069800F04DFC0028F2
:402E800082D168460A4C007B60700A4802F0EAF90028B4D1204607490C3007F099FD0028ADD107F0BBFD0028A9D1012121706BE7A40E00202812002010B507F0A7FD02F0A3
:402EC000A1F902F0EFF900F0B7FC00F0CFFC02490020087010BD0000A40E002010B507F095FD02F08FF902F0DDF900F0A5FC0749074807F06DFD002807D107F08FFD0028B2
:402F000003D1034A01210C3A117010BD28120020B00E002010B502F05FF910BD10B502F071F910BD10B500F07DFC10BD10B50749044609780220002907D1204602F0BFF9AA
:402F4000002802D120460AF081FD10BD1410002010B502F05FF910BD1CB5FF206946087100200870FFF7DAFF6A4601A9062001F08DFA6946002008561CBD000038B50446D7
:402F80000120002C20D0617801291DD800290BD0FF25E535FFF7C2FF0C4828180088C0B22070072803D00EE0FF25CD35F2E7002069460870684601F08BFB69460878012812
:402FC00001D108202070002038BD000000102E40F8B504460120002C26D06178012902D92278092A20D8002905D0FF25E5352078092803D004E0FF25CD35F8E7082020705E
:40300000FFF78CFF2078114F114E08280DD0002000F01EFA70780128207810D00D4969180880FE2070700020F8BD012000F010FA0720B8810549203188800120F2E7B88173
:403040000248217820308180EBE70000C0112E40400F002000102E400121002807D005494A8842804A784270097801700021084670470000DE0E0020F8B504460120002C3F
:4030800052D0217808294FD2617804294CD26088102166283DD800283BD065882348662D45801BD801270026BF020A2D33D90A212846FEF70FFDC0B2072800D907200A2195
:4030C00041438D4204D9691ACEB21F2E00D31F264101314339431648FEF752FB134D60786870217829701349496A8A0781001148920F11432430FEF745FB687800280CD048
:40310000401E022181401820FEF7D4FDC000083804E06180C1E72946DCE7B82081B204482030FEF72FFB0020F8BD0000DE0E0020B8102E4040F02E4070B505460124FFF7AA
:40314000EDFE002D04D0082128460EF00FFD0024204670BDF7B582B069460AF079FA050041D1FFF7DBFE6846008803F02DFD040038D004F0CAF8002834D0FF27882049379C
:4031800000593E46002805D01849897A890601D5878AC68A204602F0A9FA01280DD006F0C7F850210A5B617902F058FF283081B233463A46204605F05DFE20464030C28A00
:4031C00004998A4200D9C182C18AA07805F030F80398012801D901200390A078039905F02DF900E00625284605B0F0BD90160020F8B50E4669460AF02BFA050033D1FFF73A
:403200008DFE6846008803F0DFFC040019D004F07CF8002826D01548F121807A0840C00621D520464030418A008A491C41430804C00C0F4986420CD326822079072802D0F2
:4032400011E006250FE001200870204603F0C2F809E0002E07D100200870A078002104F0C9FB00E002252846F8BD000090160020400F0020F8B5012406460D46002925D031
:4032800013480078002808D0FFF748FE694630460AF0DEF9040003D018E000200880F8BD6846008803F090FC06000ED004F02DF800280AD00748F121807A0840C00602D5E9
:4032C000308A288002E0022400E006242046F8BD400F0020901600200121002807D0C221C1700321017001214170002181700846704710B501F0CAF9012801D101F0CCF92C
:4033000010BDF0B589B015460F4606460124FFF705FE002E20D0002F1ED0002D1CD0102239466846FEF70DFD1022314604A8FEF708FD102168460EF03DFE102104A80EF0D4
:4033400039FE2B46102204A9684605F0A5FF102128460EF02FFE0024204609B0F0BD000038B5FEF7BFFA01F0DBFF03211548FEF709FA0120FEF796FA12483038406A0421AF
:403380008007800F084381B200900E480C38FEF7F9F9B8210C48FEF7F5F90B48032109021438FEF7EFF9084C5321D83C2046FEF7E9F907210548FEF7E5F954212046FEF77C
:4033C000E1F938BD70F02E40D8102E4098142E407CB5FF24069E079D00280BD0002909D0002A07D0002D05D0002E03D0002B01D01B2B01D9012406E00096019505F07BFF59
:40340000042800D1002420467CBD7CB5FF24069E079D00280BD0002909D0002A07D0002E05D0002D03D0002B01D01B2B01D901240BE00096019505F017FF042802D0052899
:4034400002D002E0292400E0002420467CBD000010B50A4A141D012808D009491046FEF791F908492046FEF78DF910BD04491046891CFEF787F90349491DF3E788002E40F8
:4034800031D000003AE3000010B5064A012805D01921C9021046FEF775F910BD1D21C902F8E7000090002E4001460120002903D0024A002012880A80704700002810002067
:4034C00010B50122002803D011490B88984201D9012010BD14234968434359182039C9890C4B994208D0DB1E994205D05B1C994202D05B1C994209D1C108074B44075A5CB1
:40350000640F0120A04082435A540022104610BD7010002003280000001D0020014608B5012000290AD0002003460090064A074800F0D8FA0006000E01D0022008BD034ABC
:403540000121521E117008BD75AA0000B90F002010B5084C02202178012906D1607800F011FB0006000E01D0022010BD0021217010BD0000B80F0020134A1088810703D039
:403580008107890F401A001D11791030484381B25088820703D08207920F801A001D800040180A494030098980B2CA0701D0503080B2890706D504495422091F09785143B9
:4035C000081880B270470000AA0E00202812002070B504460120002C12D02368002B0FD0616800290CD0074D06222889208118462968FEF7A6FB6968606809780170002091
:4036000070BD000028120020FFB58446384F1C460020BB883F78054602460646002F11D100290ED0029999420BD36146002908D0002C06D00A99002906D02E4B0B999942F3
:4036400002D2012004B0F0BD002144E0AB001F19BF78002F3BD0E35A002B38D07B43591889B22B0000F04AF8050410161C253100A7782388BC46FF27233BEB37BB4222D220
:403680006346032B1FD322E0A388002B1FD0302B19D31CE02389002B19D0282B13D316E0A289002A13D01346134F233BBB420AD20DE0268A002A0AD033460F4F233BBB42CB
:4036C00001D2964203D901200EE0002001E000280AD16D1CEDB2099B9D42B7D31C2463435B1802998B42ACD89642AAD8AAE70000A40E002079020000BAFF000030B4744627
:40370000641E2578641CAB4200D21D46635D5B00E31830BC18470000FFB583B0002469460C801F4606468C80002806D00598002803D004983043800701D0012467E0002FCC
:40374000FBD03449049809888842F6D3FEF7C2F8FEF7B0F800F06CFC002856D100F0CAFD002852D12C49084601F01CF905042D0C4BD12A480499066081800021C1800781C5
:403780000C98007AC00704D0684601F054FD040007D10C98007A800703D501A801F054FD0446BF1DFEB2002C21D13146059800F089F804001BD10DF017FB0406240E16D181
:4037C0006A461088928808368518144AF1B29088D288AEB29319984207D3401B801A80B201F0D2FB050007D000E0FF25012400F0B7FA002D04D008E0F8B200F047F9F6E72E
:4038000000F0DAFA06490120087000F023FC204607B0F0BDA80E0020B139000034120020B80E002010B503480078012801D101F04DFA10BDB80E002010B500F0F9FD0028B6
:4038400003D100F00BFC002801D0FF2010BD0548007A801DC0B200F031F9034A0020107010BD000034120020B80E002010B500F0FBFD01F0C9F80449002008608880C8801E
:4038800008810249087010BD34120020B80E002070B5084B0446DA889E8800205518B54206D81D68AA182260DA885118D98070BD032070BD3412002001480089704700009E
:4038C00034120020F0B587B007460D4600208900009006916846FFF7DBFF844600285DD1304800990160002117E02E4B88001A680629115406D22C4C04196678821856702C
:40390000628805E0C419203CA67A8218567022891B68C018491C4280C9B2A942E5D300242DE0601CC2B2059025E01E4FA30039689600581840887118039604904E88B042FC
:4039400017D938466F46FE80B6464F786E4677710297049F4F800168039F5E18767879184E700168764659184E800068029F18184770521CD2B2AA42D7D30598C4B2AC42A1
:40398000CFD36046002809D168460699FFF780FF8446002802D1054900980860604607B0F0BD0000BC0E0020D8510100C00E00207047000010B5002809D005494A68002A35
:4039C00005D0011F08788000105801F08BFA10BDBC0E002010B50446FFF76EFFC0B2801DA0420CD307484068002808D0A100405801F0EAF9002801D00470001D10BD002080
:403A000010BD0000BC0E0020F8B516460D460446FFF752FFC0B2801DA04203D20020C0430090F8BDB2B2E9B2684601F0F3F90099481C03D0024AA000526811500098F8BD06
:403A4000BC0E0020F8B50746FFF736FF801DC6B20A49002005460C680DE06178002907D06188B94202D32078FFF7B4FF002804D1241D6D1CEDB2B542EFD3F8BDBC0E002072
:403A800010B5002801D0FFF795FF10BD70B506460948002504680BE06178002905D062882078121D0023FFF7AFFF241D6D1CEDB2B542F1D370BD0000BC0E0020F8B5084F25
:403AC000064600243D6808E0287879688000085801F0B4FA2D1D641CE4B2B442F4D3F8BDBC0E0020FFB581B00A9C16002BD000F0F1F80546042826D0214F002C0BD020464E
:403B0000FFF7A0FF2901C919486000281BD022460499FEF716F91A4928010E5046187481019805707D20029CC000444300F0C0F8009004280AD000F071FAA0420ED800F002
:403B40006DFA201A06E0FF2005B0F0BD204600F0CBFA0020B08135720020F5E700F05EFA074600F0D7FA381B87B23846012100F00BF900980101024808188781E6E70000DF
:403B800040120020F8B5060117483418217A042903D0A089002802D018E00020F8BD00F03DFA054600F0B6FA00F0A2F804280DD001010D480F18B88941198DB2002100F09B
:403BC000E3F80020B881284600F08EFA6068064D002801D0FFF754FF042020720020A8516081A081D9E7000040120020FEB500266A46304601232549050169180D7A042D7B
:403C000002D0898900291BD000211154401CC0B20428F0D300246846005D002830D01B482101081841894768056802910021016041600422418102728181002E02D015E05E
:403C40001354E3E700F054F804280ED001010F480818019086890021304600F095F8019800218181304600F03FFA0126002D07D038460299A847002F02D03846FFF700FF9E
:403C8000641CE4B2042CC6D3FEBD0000401200200EB5002005216A460090118150810348694600680DF041FF0EBD0000C40E0020074A0020010189180B7A042B02D0898944
:403CC000002903D0401CC0B20428F3D370470000401200200549002002015218127A042A03D0401CC0B20428F6D370474012002030B50A4B04200A4C00210A011219157AF1
:403D0000042D06D09289002A03D09A4201D808461346491CC9B20429EFD330BDFFFF00004012002070470000F8B500250B4F2E462801C419217A04290AD0042121723E5097
:403D40006068002802D0FFF79BFE66606681A6816D1CEDB2042DEBD3F8BD00004012002030B50020074C05460423020111190B72A5504D60401C4D81C0B28D810428F4D32D
:403D800030BD00004012002030B5094C00231A011219157A042D04D09589002906D02D1895815B1CDBB2042BF1D330BD2D1AF7E740120020002070471CB5002469460C7083
:403DC000142001902346054A05480DF0B3FE04480068401C00D1FF2420461CBD353E0000C40E00203EB5124A0146FF2000230124126800290DD0012914D0042908D10420EE
:403E00006946009308814B8110460DF08EFE80B23EBD6846009304814381694610460DF07FFEF4E768460093048143816946EBE7C40E002070B5458904684168008903006A
:403E4000FFF75CFC08280509091E22282628002005F0D0FC1EE0022908D0C8B22A4621460BF0C4FF2046FFF70BFE13E002202A4621460BF0BBFF2946204600F00DF809E04D
:403E800000200DF039FB05E02046FFF7AFFE01E0FDF742FD002070BD014B0022DB681847C80E002070B5448905680089022803D0032809D0FF2070BD2246094C0023A4683B
:403EC00029460120A04708E0FFF728F8241DA2B200232946022006F02CFC002070BD0000C80E002070477047024800214160018041807047C80E002070B50C46002186B06C
:403F000016460391012802D0022859D116E003A9012006F06EFC01281BD1039D324621462846FDF70EFF0095287801900220694608814E816846FFF7B5FF41E0214D002B1B
:403F4000686809D0049004A9022006F052FC01281DD0022006B070BD002812D0298840182146FDF7EEFE28880024801980B228806988091D884206D12C801348FFF792FFEF
:403F800003E00320E6E788421AD96C6018E004986860E278A378110219430B4A698000231060E3565360032313815181A1788170E178C17061784170217801700420288028
:403FC0000020C7E7C80E0020801200203EB515460C46022803D004280CD000203EBD0091019002206946088107484A8100680DF09CFD07E00BF0FAFE044B0022DB682946FA
:404000002046984701203EBDC40E0020C80E0020014AD16090607047C80E0020034801688068081A0A214843000970478C12002010B5FDF743FC482204490548FDF781FEBD
:4040400003490120C870002010BD0000F45101009016002010B5FDF729FC10BD0020704770B5134C2368002B08D0207B1149C20705D04008400020738868A08070BD886833
:404080000B4AA18880B29268814203D90A4D691A091802E0814202D2411A5118A160A080A0689842EAD30DF05DFD00F013F870BD8C120020C0102E40FFFF000010B5084633
:4040C0001946FFF7A5FF10BD704710B5FFF77EFF10BD000003480021016041608160C160704700008C120020024610B5FF20002A0CD0FFF7EFFF064C0321207B0843207354
:4041000010010A21FDF7E6FC2060002010BD00008C12002000B504480A21806848430209FFF7D8FF104600BD8C1200200248007B8007C00F704700008C12002010B5444918
:404140000868002802DA434B01221A70022290430860414800693E49C00B4031096A08425ED0012000F0D0FA3B483C497C30FDF709FB37480E216C30FDF704FB364820210E
:404180008430FDF7FFFA344814219C30FDF7FAFA3148FF21C131A430FDF7F4FA2E48FF212F31B030FDF7EEFA2B482D49BC30FDF7E9FA29482B49AC30FDF7E4FA29492648E7
:4041C000491CB430FDF7DEFA23482749B830FDF7D9FA21482549CC30FDF7D4FA1E4824490830FDF7CFFA1C482249A830FDF7CAFA194821498830FDF7C5FA17481F498C30AB
:40420000FDF7C0FA14481921C9029030FDF7BAFAFDF7BAFAFDF766FBC0B2022802D00FE0FF2010BD16491748FDF7ACFA15481649001DFDF7A7FA134800210830FDF7A2FAB7
:4042400054200449C043891C0870002010BD000000F02E40D80E002000002E4055650000320300002F3F00003102000010520000EC160000FA12000031D000003AE3000080
:404280009956000080012E40F80F000070B50646581C80B245086D00002408E0304600F0C1F81055000A1119A41C4870A4B2AC42F4D3D80705D0D0182038D15CC47FD45475
:4042C000C17770BD30B50A4C002100195B1E07E0541864782502545C2C430480891C89B29942F5DB994201D1515C018030BD000000102E4010B5FF2000F006FA0F49FF2056
:4043000048700E481021801D41800121417001700A490020C91C4870FFF710FF04000AD100F01AF907210648FDF72AFA044807211830FDF725FA204610BD0000D80E00200F
:40434000CC112E4070B5002405465B1E0AE0284600F068F8010A161971702D1D1055A41CADB2A4B29C42F2DB9C4203D1284600F059F8105570BD000070B500210A4D5B1E4A
:404380000AE0541864782602545C344346193480001D891C80B289B29942F2DB994202D1515C4019018070BD00102E40F0B50599091FCFB200217E1E0BE0541864782502AF
:4043C000545C2C43164D45192C80001D891C80B289B2B142F1DBFC0712D01C78515C24020F4A0C4381180C809C785D78001D210280B2294384182180001D80B2D9780CE09A
:4044000059781A7809021143054A84182180001DD9789B78090280B2194380180180F0BD00102E40014940180088704700102E4010B50B490020487000F08EF80020FFF7F4
:4044400007F80020FFF720F807210648FDF798F9044807211830FDF793F9002010BD0000DB0E0020CC112E4010B506480078012803D102210448FDF785F902490020C91EDC
:40448000087010BDDB0E002070F02E4010B50B46062812D006DC01280CD0032801D1FFF7C7FF10BD0A28FCD00B28FAD105480078107010BDFFF71EFF10BD1146184600F0BA
:4044C00039F910BDDE0E0020F8B5204DAC6A0127A0071F4E002816DA307806280ED1286A384328621B480069F903084381B219481030FDF747F9042000F006F91348022135
:404500002830FDF73DF9E00711D0062000F0FCF80F49FF20C91E48707078002802D1686B38436863094801212830FDF729F9E0050BD53078042802D1052000F0E5F803488B
:40454000FF2101312830FDF71BF9F8BD40F02E40DB0E002000002E4010B503212348FDF711F90120FDF79EF920483038406A204C80076178800F890001431C480C38FDF783
:4045800001F96078002808D0401E022181401820FDF790FBC000083800E0B82081B21548FDF7F0F81348032109021438FDF7EAF810481149B830FDF7E5F8612189010F4892
:4045C000FDF7E0F80D480321001FFDF7DBF80C490C48FDF7D7F80B480B496038FDF7D2F8084801218838FDF7CDF810BD70F02E40DE0E0020D8102E4090890000041E2E4096
:40460000FF0F000058122E4020900000044800684007400F022801D0002070470120704700010B4000B5FFF7F1FF002805D009480168C908C900016000BD0748016A49088F
:4046400049000162054801690122D2039143016100BD000000010B4040F02E4000002E400849087806280BD148780749002803D1486B400840004863C86A01221043C862F5
:4046800070470000DB0E002040F02E400148007870470000DB0E002002484078022800D001207047D80E002000B50300FFF726F8080D050D0B070507090D012000BD032019
:4046C00000BD042000BD022000BDFF2000BD0000074A9168D26889B2064B92B2994204D105498A4201D1012100E000210170704780002E4033D000003FE300000149487011
:4047000070470000DB0E002010B50446FDF7D2F8072C01D9FF2C01D102480470FDF7C6F810BD0000DB0E00200149487070470000D80E002070B50C460546FDF7D3F8C0B2EA
:4047400002280E49287804D0FF2810D04C280CD810E0FF2809D10A4AD0680004800F032801D0087807E09069000A553803E00878207070BD4F382070087070BDDA0E0020FE
:4047800000002E40F0B50122002830D000292ED00424420600D00524792342065B06D21800D0641C034600221EE00C2516466E43104D00277519AF720E4F002ABB51696056
:4047C00007D0661EB24209D10B4E86197606760E05E05E06760E8027BE1B00E080269B198919521C2E81D2B2A242DED300221046F0BD0000181500207902000007490020DC
:404800000C2242435218927A012A05D0401CC0B20628F5D3002070470120704718150020F8B50F000446164609D0184D18496868A04202D94018A04201D38E4201D9012028
:40484000F8BD39462046FDF76DFA00281BD0324639462046FDF775FAF0B200210C224A43521913895668F718A74208D90127A41B1B1B9772834206DAC01A1469C0B2491C5B
:40488000C9B20629EAD30020F8BD0000181500207902000010B500F061F80748054AC16806480C46FDF74DFA04492046FFF76AFF10BD000079020000E40E00209C1200200A
:4048C00010B500F04BF810BD002070470020054A002902D0012902D002E0506000E0906000207047E40E002070B5084C154608460549A26889182A46FDF723FAA06840196E
:40490000A06028B270BD00009C120020E40E00203EB50A226946FFF7E7FF044606480A2200686946FDF7FEF9002802D00020C0433EBD20463EBD0000E40E0020002802D09B
:40494000044A914201D2FF20704703490A61C8600020704779020000E40E0020024800214160816070470000E40E002070B5074C15460548626880182A46FFF751FF606874
:404980004019606028B270BD9C120020E40E002010B503490A220968FFF7E8FF10BD0000E40E002010B50F4A002313600E4A13600E4B18600E4801600E49012008600E494F
:4049C0000860000290600E490C4808600D4914300860FF381538506000F0BEF800F0CCF9002010BD100F0020F80E0020240F0020280F0020140F0020040F002060160020B1
:404A0000080F00201C0F002000207047014610B50020002910D0094B1A689C685118A14209D25868196080188A0704D08A07920F891A091D196010BD002010BDF80E00205D
:404A4000F8B50024164E671E321F3D463168136806E01422624310328A58521C1BD0641C9C42F6D36A1C14D02C461422544322460C3288500C214843FFF7C8FF31680028D2
:404A800008510AD031680020103408517068401C70602846F8BD2546E4E73846F8BD0000080F0020F3B50026F64381B000281BDB1E490968884217D80299002914D01B4FAD
:404AC000142204463F1D54432546396810354859401C09D0FCF7EEFE38682F1F4159C359994203DBFCF7E2FE3046FEBD214608310091465801590C20704308180C220299EB
:404B0000FDF71FF90948761C001D0068C159B14200D100260549009A091D865008684159491C4151FCF7C2FE0020FEBD040F0020002803DB07490968884202D90020C043C8
:404B4000704704491422091D096850431030085870470000040F0020F0B500200D4A451E0346171F50600FE014260146714314680E1DA3510C461668083433511668083490
:404B800035511468401C635039688842ECD30020F0BD0000080F0020F3B50026F64381B0002841DB2349096888423DD8029900293AD0204F142204463F1D544325463968C2
:404BC00010354859401C2FD0FCF774FE3868415900292BD0211D009146580C21005971430F46C1190C220298FDF7ABF811480021001D0068761C00590C34C0190160416077
:404C000081600C48001D00680159B14200D100260849009A091D865008684159491E4151FCF744FE0020FEBD3046FEBDFCF73EFEFAE70000040F0020FEB504460D46002098
:404C40001E49089E0860471E009001900290002C11D0486885420ED2002A0CD0002E0AD0642E08D808460C3001681C2068430C18207A002801D03846FEBD012022602072C4
:404C80001846FFF7DDFE6060401C13D06681A6810A4827610C3067610179A94200D205710021684601810A462846029B00F040F82846FEBD00202072DDE70000100F00207B
:404CC00038B50124009400F039F838BDFEB50027164EFF433D4600240EE01C20316860430818017A002906D04068FFF721FF002801D0254603E0641C3079A042EDDA681C76
:404D000012D01C2130684D434419FCF7D3FD69466068FFF741FF0546FCF7C8FD002DD9D1216868468847D5E7FEBD00001C0F002038B50024009400F001F838BD1FB5002244
:404D40000C49541E0A60002811DB496888420ED808491C220C31096850430818406801A9FFF7A0FE401C02D0002004B010BD2046FBE70000100F0020F0B50021114A4D1ED5
:404D8000174611710C3F0B46BD6016E008461C2460431668041D355114680646235014680836A3551468361DA353044616680A34335318301468491C255078688142E5D3D8
:404DC0000020F0BD1C0F002038B500210091002811DB0F49097888420DDA0D4D04010C3529680859002807D0201D0818694600F06FF9002801D0002038BDFCF75BFD286880
:404E00000F34015D491E0155FCF750FD009838BD2C0F0020F7B582B0002502986E1E06602E48D21C024017462D4A2C4610460C380178106805E02301C358002B0FD0641C38
:404E4000E4B28C42F7D3711C28D03401211D40180191039900F02AF900281FD101E02646F1E71F48016820460C300F521C480399026820460E301154194803990268204623
:404E80000F3011540398784300F0A0F8144900280968085102D00024009011E001251AE00F48016801980818009900F02CF9002801D0012502E00098C0190090641CE4B24B
:404EC00003988442ECD3002D05D10298066004480179491C0171284605B0F0BDFCFF0000380F0020F8B50D4600216A468C461180002839DB23490978884235DA214B040119
:404F00000C3319680A59002A2ED020460C300B5A801C0E5C184670438018954224D3854222D2002006E007465F43BF18AF4206D0401CC0B2B042F6D36046002814D0114EBA
:404F4000271DC8190C366A46294600F006F900280AD168460088012808D030682946C01900F0D1F8002803D00120F8BD0020F8BDFCF7A0FC30680F34015D491C0155FCF7CD
:404F800095FCF3E72C0F0020F8B50F46002400F031F8002817D10C4900220B460C334A600EE021011D680E466A501D680C36AA53B61C1D680F31AA551D68641C6A54E4B2D5
:404FC000BC42EED31A71F8BD2C0F002000280BD0C01C074A81085068890053884118994203D893685160181870470020704700002C0F0020F8B5064600200F4D0090297010
:405000000C0121466846FEF743FC00280CD129460C3100980860301B001F84B221466846FEF736FC002801D0FF20F8BD6C800098A8600020F8BD00002C0F0020F8B500282F
:4050400027DB19490978884223DA174C05010C342168485900281CD028460C30085A009028460E300E5C401C0E5420682F1DC01900F064F800280CD12068002445590EE0F7
:40508000094829460C300068C01900F03CF8002801D00120F8BD00982D18641CE4B2B442EED30020F8BD00002C0F002030B50D4604000BD0A800FFF789FF6060002805D0EC
:4050C00000202570C0436080002030BD012030BD70B50D46040005D0002D03D00220205E002801DA012070BDFCF7E4FB0221615E60688900405828606088401E6080FCF77D
:40510000D5FB002070BD70B50D46040007D0002D05D002212078615E401E814201DB012070BDFCF7C7FB6088401C00B26080616880000D50FCF7BAFB002070BD10B5040049
:4051400009D0227800216068FCF704FE0020C0436080002010BD012010BDF0B500231D46002802D00224045F0AE00120F0BD46689F00F6598E4201D1012503E05B1CDBB24F
:405180009C42F4DA15700020F0BD00000148007870470000400F00207CB505460024FDF7BDFEA8796946087000A8062229460130FCF7C7FD0021684604F0E2FD0C2804D0A2
:4051C000072804D01F2804D004E0022402E0042400E0272420467CBD10B502280BD0032802D0042809D102E000F0E8F805E000F093F9FF2801D100F0A3F9FFF747FAFFF721
:4052000053FA10BD10B500F0CBF9FFF73FFAFFF74BFA10BD70B504460025FDF77FFE002C06D0A079012803D8214602F06DFC00E00125284670BD01460120002902D050204A
:40524000088000207047000001460120002905D003485422007850430880002070470000420F002010B502460D49FE204870032410460CF07DFF002810D10CF021FF002852
:405280000CD105F013FB002808D100F093FB002804D104F0F9FF002800D10024204610BD400F002010B5FF240CF0DAFF002804D10CF0F4FF002800D10024204610BD70B5C9
:4052C0000025044600280ED0A07901280BD8FDF725FEA0790028204602D002F0F1FF03E002F0C6FF00E00125284670BD014610B50120002904D006220248FCF722FD002099
:4053000010BD0000440F002001460120002903D0087802490870002070470000420F002010B5002403F0FAF8002800D00124204610BD000070B50E46050001D0002400E0CD
:405340000C4C002C11D0E28A500609D5D107C90F022003F053F8E08A40218843E08204E0D107C90F012003F049F83146284602F027FD70BDF8160020F8B50546002004467F
:405380000D4E009013E022466946284601F04AF80098002801D00CF0CDFEA878214602F0FDFAA878214602F0EBFA641CE4B2308AA042E8D8F8BD0000B0170020FEB54E4DD5
:4053C000FFF764F9012849D14C480078002845D002F07EFC002841D004F04AF900283DD0474C6078C00703D000F0E6FC012835D0207E00287DD16078002600285BD000074C
:4054000006D540488089070B00F02EF9384370D13B484178684603F095FF044628793A4DA9784018C1B2A14261D802F051FC00285FD0344860300089314F0190203702F0AB
:405440009DFA6846008802F0C7FA02F057FB2F490988884203D10120FFF756F949E02C49012008702648807B00281BD00198002818D04037F87E002814D122486030008883
:405480004000A0420AD96878002807D102F0E4FF2049088A03221202104308822878002800D02E7002F0C6FA0120FFF727F900F0F5FB174C15E002F00BFC002819D010248C
:4054C00002F01CFB214602F011FA02F085FA104C0120207002F0AEFA0020FFF70FF900F0DDFB20780128B6D1FFF79CF826700020FEBDFF20FEBD0000D0160020D80E002018
:40550000D8160020A0102E40500F0020620F00204A0F0020E0112E4010B50848FF244078002809D102F0D4FB012805D1FEF79CFF0720FFF7E9F80024204610BDD8160020B2
:4055400038B5FFF7A3F8012801D0002038BD02F0BFFB00280AD0114C6078C00703D000F02BFC012802D0207E002801D0FF2038BD617800290FD0684603F0E4FE022806D9F7
:405580006846008802F028FA012002F059FA0320FFF7BAF8D9E70020F7E70000D816002038B51E4CFFF772F8042813D0052811D0062812D003282AD007280AD100206946C2
:4055C000087002460120FEF761FFFFF75FF80128FBD138BD00F082FB38BD02F049FA00F07DFB02F0C5FA8007800F0228F4D10C4841880029F0D05B21095D0029ECD1012199
:405600000170A07D0140022002F0F8FE38BD02F033FA0120FFF778F838BD0000F8160020500F0020F8B50646002402F055FF0546304602F06BFF03460A480021068A0DE09B
:4056400001228A401046174628401F40002803D0002F01D1224394B2491CC9B28E42EFD82046F8BDB017002070B500252C460A4E03E0002C01D0002000E030460079002898
:4056800003D02046FFF7CEFF0543641C2406240EEFD0284670BD0000F81600201CB50020694648706846FDF769FC01AA69460A20FEF7ECFE6946042008561CBD10B50C465F
:4056C00001F082FA002809D00179002906D0C1788078224602F0FAFB002010BD022010BD0148007870470000D01600204030C07E002800D00120704700B500F001F800BD10
:405700008C2148430749084A40186030417F491CC9B24177D289914201D300214177C8B270470000D8160020B017002013B501F04BFA04000BD001F0E8FD002807D0214635
:4057400001AA0A310620FEF7A1FE00201CBD02201CBD000010B50C4601F036FA00280AD001F0D3FD002806D0224604490A20FEF78DFE002010BD022010BD0000B916002072
:40578000F3B581B0074601460026029802F09CFE0446002F01D0002500E0154D002D21D0284601F047FA032C04D13946029802F0E7FE06463846029902F0E2F8032C06D097
:4057C000002C10D00121384601F03AFB03E03146384603F0D1F8284601F0C0FF0221284601F0D6FFFEBD3846029902F0C9F8FEBDF816002010B5044603F008FD002801D05E
:405800000C2010BD2078611C02F062FCFF2801D01F2010BD02F0A8FCFF280AD02178621C02F036F8044821780068026B601C904710BD072010BD0000680F002010B503F01B
:40584000E5FC002801D00C2010BD02F023FC03480068C06A8047002010BD0000680F002070B50D46044610210CF0A4FB1021601806460CF09FFB334610221946204603F0A0
:405880000BFD102130460CF095FB02202870204604F052FC70BD0000F8B504464078217802028006870FE0781143A67809050002090D0643084601F087F900210546F2B2AE
:4058C000002812D0002C10D0022F0ED0032F0CD0002A0AD00279092A07D0002A05D0134A5A23527E1B5C9A4207D82889002104F058FB20460CF01EFCFF21002914D10C48FA
:40590000224600682946436930469847C0B2FF280AD128464030817EF2B2491C8176FF232146284600F0DDF8F8BD000090160020800F00200020704710B5044603F066FCB5
:40594000002801D00C2010BD2078611C02F0C0FBFF2808D002F0F8FA044821780068426B601C904710BD1F2010BD0000680F002010B504F089FC00F057F9002010BD10B5A3
:40598000044600786178E2780843A17811430843217908436179084305D003F029FC002803D00C2010BD122010BD204602F088FC002010BD10B5FBF795FF02F0AFFD044807
:4059C00003F0AAFD02F0CAFA012000F003F810BDA0160020F1B586B003A8009005A8019025489F22817A114081726846FDF7F0FD00283FD169460989C90705D01F48069933
:405A00000068C2686846904769460989890706D500282FD11A480068816A06988847002828D1184E0025757075737571F575357675767575B570F570B5713746F57301205A
:405A4000BC3738731F20F880FF2130467972A0300175457500F076FA00242046069901F0FFFB002803D1641C2406240EF5D0FD72BD72B57307B0F0BD90160020800F0020A0
:405A8000680F0020D816002070B505460E46084602F022FD0446304602F038FD0121A9400A46224001400A4301D0012070BD002070BD10B50446084602F028FD0121A14009
:405AC000014201D0012010BD002010BD10B5FEF7DDFD032804D101F0CFFF0120FEF714FE10BDFEB51C4616460F46054601F036FEA878FFF701FE02460190334639460094BF
:405B0000284600F00DF8002808D1A8780199FFF711FCFF2C02D138460CF00CFBFEBD0000FFB585B005460E980C46FF2810D02B49C00009680A5840180179C0795278814238
:405B400001D9012601E09006860F6846038108E06078A1788006860FE0780002014368460181284601F0DCFB070007D021462846079A00F0EBFB384609B0F0BD304600F07A
:405B800099FC04AE0346039002AA29460096204600F025FB3C20405D002818D0284601F0BFFB012813D0684600890096C0B20190A878231DFF22079902F0B6F868460089A5
:405BC000039BC2B2A878079902F0F6FBD3E7684600890021C0B20091E9E700007C0F0020F8B5104F002500242846FFF71BFD060012D00EE03046E040C007C00F07D021464F
:405C0000284601F0B3FE21462846FFF7B9FD641CE4B2388AA042EDD86D1C2D062D0EE2D0F8BD0000B017002010B502F097F90020FFF7D0FE0CF014FB002010BDF8B500241B
:405C400000F0B4F80123012800D10124104F00203E4620360425082203E0002801D0002100E031460979002907D001290BD002290BD0114681402143CCB2401C0006000E4E
:405C8000EBD07C70F8BD1C43F7E72C43F5E70000D816002010B5FFF7D1FF10BD70B50E4CFBF767FD0546FEF7F1FC062802D02078012803D02846FBF760FD70BDFBF768FEC2
:405CC0002846FBF75AFDFEF7E1FC0628F5D020780028E5D170BD00004A0F002010B5FBF748FD0446FEF7D2FC012809D0FEF7CEFC022805D0FBF74CFE2046FBF73EFDEEE79F
:405D00002046FBF73AFD10BD10B50B4681791943817103D08078114602F01CFB10BD10B582798A43827102D1807802F027FB10BD30B50C4C0220A28A0B4B9978002901D099
:405D4000022906D11D785B78EB18282B01D9032002E0032900D101205105490DC0020143A18230BDC0112E404B0F002000B500F023F8002807D0012805D0032801D0042806
:405D800001D0002000BD012000BD014600B50020C90701D000F00AF800BD014600B50020C90701D000F002F800BD000001480088000A704720102E400448008B410501D564
:405DC000042070474007800F7047000000102E4038B50446000610D5FFF7EEFF01280CD1684601F059FE6846007800F0B3FA012001F01CFD0220FFF74DFF0348006801694D
:405E00002046884738BD0000680F002010B5034A0178117002F0C0F9002010BD4B0F002070B50446FFF7C2FF002801D00C2070BDA27B01211F48002A827801D00A4301E042
:405E40005208520082706279012A14D0C17849084900C170184D2868016820468847207901280CD06188208803F000F82080207904280FD015E0C2780A43C270EAE7286896
:405E8000C168E01D8847E01D02F006FA0B48808C208006E02868C168E01D8847E01D02F0FBF9074920798870204602F083F9002070BD0000D8160020680F00209016002044
:405EC0004B0F002008B50178FFF770FF814201D10C2008BD002914D0072069460870FFF745FF012807D10121684600F08BF8012801D0092008BDFFF71BFF02F08FF901209B
:405F000011E0FFF733FF012806D1684601F0C4FD6846007800F052FA02F076F9FFF746FF0028FBD10220FFF7B5FE002008BD000010B5034A0178517002F0ECF9002010BD36
:405F40004B0F002038B568460CF08AF8002801D01F2038BD01210098C90201804180002505714571857107214173857302F022F9009C202200212046FBF7ECFE25702A462C
:405F80000021601CFBF7E6FE204602F005F9204602F0C0F900980CF0CDF8042200210248FBF7D8FE002038BD4B0F00200346084800B5834209D8184600F006FE002804D084
:405FC0000089984201D1012000BD002000BD0000FF0E0000074A9179491C8906890E917138220A4092014907090E11430843024908407047D8160020FF0E0000C006C00E86
:4060000070470000F8B507460E4600240D4803E0002C01D0002500E005462979002905D0641C2406240EF3D00020F8BD0021204601F016F92E712046FFF7CCFF28813C70FC
:406040000120F8BDF816002010B503F071F90222002100F003F801F02DFF10BD10B5094B40074907000F090F185A595A40185043C0086421FBF72EFD002800D1012080B243
:4060800010BD00003C520100F7B53D20405C88B015460C46002802D02878042802D200200BB0F0BD6946087200262046FFF71EFB012800D00126204603A938300191009058
:4060C00023460327A17E34333246206A03F03EFA02A8089900900B46019120463A4603A9243003F0A1F802466846007A2870204601F0A2F81046D3E7FFB587B00C46054699
:406100001078694608723D20005D1746002826D000262046FFF7EAFA012800D00126204603A93830019100902346A17E34333246206A03F00BFA02A80090291D01912046F6
:406140002B1D03A924300A9A03F06EF802006846007A388002D1204601F06EF810460BB0F0BDF0B505463C20405C89B016460C4600280CD0307869460873002806D00027E0
:406180002046FFF7B3FA012803D003E01F2009B0F0BD012703200890204604A93830019100902346E17E34333A46E06903F0CEF96846007B03A928180290009120462B4611
:4061C000019504A92430089A03F07AF802466846007B3070204601F039F81046D7E7FFB505463C20405C89B016460C46002810D0084601F095F801280BD03088694688832C
:40620000002809D000272046FFF770FA012805D005E000200DB0F0BD0220FBE70127204603A93830019100902346E17E34333A46E06903F08BF9291D2B1D07A8129A6D4630
:4062400007C5204603A924300C9A03F039F802466846808B3080204600F0F8FF1046D9E770B50D460446FFF741FA01280AD0E87AA97A00020143A07801F008FD012808D03E
:40628000002070BD00222421204602F041FD242070BD28214C200155204600F0A3FB282070BD0000002801D0002000E003484030C07F012800D0002070470000F8160020BE
:4062C0000146002049070ED50021084B03E0002901D0002200E01A461279022A04D0491C0906090EF3D0704701207047F81600200146002049070ED50021084B03E00029A1
:4063000001D0002200E01A461279022A04D0491C0906090EF3D0704701207047F816002010B5044680346068002803D00BF016FF0020606010BD4030417070474030817018
:4063400070474030017070470171704792001018C166704770B53C2501F080F9040004D020460021433001F031FCFF222946204600F0D4FB002C02D0A07801F0F1F870BD5B
:4063800010B5002801D0002000E00348002802D0008903F04DFE10BDF816002010B5002801D0002000E00448002804D00179072901D100F047F810BDF816002010B501F0B6
:4063C0004DF9002802D0807801F0CAF810BD00207047000070B50546008A00281ED01049F122897A1140C90618D5294640314A8A098A521C4A4392B2D10800D101215408D4
:4064000001E0621A94B2A042FBD9FEF7BFFE012804D1298AA878224601F00EFD70BD00009016002010B50023054C0B60248A944204D992001018C26E0A60C36610BD0000DA
:40644000B017002038B5044600200090A079002814D14020015D052901D00E290ED168460BF00EFE002809D12046009902F02EFC03481021C28A2046FFF746FC38BD000028
:406480009016002010B50B4604460146184602F0ABF8002802D020460BF056FE10BD13B5044601AA11460620FDF7F0FF6846818861811CBD002800D10220704770470000E8
:4064C000F8B504462346401D543300909A1EA078911E01F0FDFA25464035A88A298A8000FBF7F8FA401E81B2688A884203D96982A07801F0BDFF20460021433001F066FB13
:4065000027480088E88102F013FFE989891C8AB26179FFF7A3FD01F0CDFC02F009FF2A8A6179FFF79BFD074601F0B8FC688A002806D01C49088A032212021043088202E093
:40654000002001F089FF1748803801886E8A002E0CD0304648431449FBF7ACFB0004000C01D0401C80B21149488002E00F4800214180288A704381B2A07801F0D9FEFF22A4
:4065800028374932B9B21346204602F073FCE98AA07801F04DFEA07801F012FAF8BD000080102E40E0112E4071020000500F00207FB504468034616805460E461831082289
:4065C0006846FBF7BEFB31462031082202A8FBF7B8FB102168460BF0EDFC6068102108300BF0E8FC60682B46083024331022694602F052FE7FBD10B504460821FFF78FFB4F
:4066000010212046FFF78BFB207905281FD006281DD008281AD12189002003F081FC072020712046FFF762F8014620464030012913D00E21017000210176204600F0A2FF5B
:406640002046FFF76DFE2046FFF7C4FE10BD20890122002103F048FCE1E70521EAE70000FFB581B01F4604460821FFF758FB10212046FFF754FB2079082803D0092804D002
:40668000042203E00422012501E009220025204600F032FE264600204036307022712046FFF73EFE0398002D02D0012808D00BE001280AD120890022029903F015FC04E029
:4066C0002189029803F02CFC012700203076012F04D0204600F056FF05B0F0BD02983073204602F041FB054605480121C28A2046FFF70AFB002DEFD109202071ECE700008A
:406700009016002070B50C460546FEF7EFFF012809D108212846FFF702FB0023012221462846FFF79DFF70BD10B5044600F0E4FD2046FFF7F5FD00214034217010BD70B541
:4067400005461A24FEF7D2FF012809D108212846FFF7E5FA0023012221462846FFF780FF70BD0000F8B50446002000900E4668460BF086FC002801D00D20F8BD84200059A0
:4067800008212030009D00F01AFA20460421383000F015FA002E02D1204600F0E9FD2946204602F022FA0E480821C28A2046FFF7ABFA204600F057FF25464035002808D055
:4067C000204600F023F8002801D0092028700020F8BD08202870204600F0C0FFF7E7000090160020014610B540310A460978082906D0092907D00A2901D100F091F810BD77
:406800000B20107010BD00F001F810BD70B50446007925464035052805D0062803D008280FD00C2070BD03220621204602F070FA0D480821C28A2046FFF766FA112028709A
:4068400010E006202873204602F08EFA0646AA8A0A20424301212046FFF756FA002E01D109202071002070BD9016002038B504460020009068460BF003FC002801D00D2008
:4068800038BD2046009D00F0B1F908202071204600F06EFD2946204602F0DAF900213D2001550F2040210855204600F057FF002038BD00B5024600F01FFD10214032117083
:4068C00000BD10B50446FEF711FF012809D04020005D112805D100231A4606212046FFF7BFFE10BD10B5FFF786FE10BD38B504460021684600910BF0C3FB00280CD12046A2
:40690000009902F026FA05480821C28A2046FFF7FBF90D204034207038BD00009016002038B504460021684600910BF0A9FB002801D00D2038BD2046009902F0FFF9054827
:406940000821C28A2046FFF7DFF90C2040342070002038BD9016002000787047F8B50025002801D0002400E01A4C002C28D0204600F0CBFC002823D0207903281CD00528C6
:406980001CD026464036B18AA07801F0DBFCB078012815D10021204601F043FE274680373868002802D00BF0D9FB3D600020B0702079072805D007E0042000E00620207155
:4069C000F8BD2046FFF706FD0221204600F0E0FEF8BD0000F816002010B54C22115400F04CF810BD10B50446FF21FFF798F909202071A07801F0CCFC10BD000038B5FF2195
:406A00006A461180002801D0002400E0084C002C0DD011460620FDF739FD684601882046FFF73DFD03480068C1692046884738BDF8160020800F002010B504468079002833
:406A400009D022214C200155FF212046FFF767F9204600F012F810BD10B5037902464032002B03D01173092B02D003E0002100E02221117300F001F810BDFEB504460089C5
:406A8000002700902781207926464036002817D0012815D002280AD112E002AA01A9204601F090FD002807D101980BF04DFB204601F0B0FD0028F0D02046FEF75DFCB77605
:406AC000254680352868002802D00BF047FB2F606868002802D00BF041FB6F60317B002919D0009800F064F8A078002100F082FF2046FFF7A9FAA07801F0B2F8A07800F04A
:406B00002FFDFF212046FFF70AF90B20FFF7C2F800F068FCFEBD1F213173E2E7F8B517460E46054602F000FC04003CD020460C3001F03CF82046062200211830FBF70AF9B9
:406B40002046062200211230FBF704F91648224600683946436A28469847074626702846FEF7C4FD012148406070002D10D02889608028464030C1782171002E0FD16979D6
:406B80006171018AE180418A2181808A608106E00648008BC005C00F2071002060803946204603F040F9F8BD680F002000102E400A4610B50146002003F052FA10BD10B5B3
:406BC0000AF0D4FF10BD000000B50146FFF716FA002801D0002000E00348002802D002898A4200D0002000BDF816002038B5044680346068002806D168460BF051FA0028BB
:406C000001D100986060606838BD000010B5014600F086FB0128887802D0FEF771FD10BD8C214843024940186030007F10BD0000D816002070B5054604464035A87F012881
:406C400011D1A1788C20084A484380186030067F3046FEF719FF002805D10220A877A078314601F0B7F870BDD816002010B50C4CA07A002813D0FEF7B3FF0A48027F417F3B
:406C8000408B00F0B7FB012809D10020A07200F019FF05498989090B01D000F03BFA10BD94170020D8160020A0102E4070477047490510B5490F0B00FCF720FD06070408EF
:406CC0000C0C0F073E21FFF787FE10BD0821FFF7C3FE10BDFFF7D1FE10BDFFF7ADFE10BDF8B507460025002D01D0002600E0204E00F096FE3046403044890021418100F077
:406D0000AFFE304600F001FB01282BD1A00702D52846FFF723FEE00602D52846FFF76EFEA00601D5FEF75CFF600601D500F014FB200602D5284600F01DF8600702D528466C
:406D400000F02CFA380402D52846FFF727FB780402D52846FFF714FBE00703D021463046FFF7A6FF6D1C2D062D0EBCD0F8BD0000F8160020F8B5002801D0002400E0284CE8
:406D8000002C4BD025464035A878012846D1FF278820493700593E46002805D02149897A890601D5878AC68A2046FEF79FFC012834D002F0BDFA2A8A6179FFF74FF90090C9
:406DC00001F06CF800983346283081B23A46204602F050F8E98AA07801F02AFA12480188688A124E002810D048431149FAF762FF0004000C01D0401C80B27080A07DC1072A
:406E0000C90F002001F0FAFA01E000207080288A698A484381B2A07801F08AFAF8BD0000F81600209016002060112E40500F0020710200000149096809680847800F0020F0
:406E400070B50D460026194A0146002801D0002401E014462034002C26D0204600F060FA01280AD18C20484380186030007FFEF70BFE002801D101F0F7FE0D4800688169E5
:406E80002046884700280CD020464030817EA94202D3491B817600E086762089294603F080F8204600F05AFC70BD0000D8160020800F002070B503460088FFF785FE040041
:406EC00013D000F022FA00280FD02079092819D02546997840352973204601F045FF0646A878012803D0AA8A02E0022070BDEA880A20424301212046FEF706FF002E01D151
:406F000009202071002070BD0EB5002217216B460292198100905A810120029B00990BF0C2F90EBDF8B518480024807A002822D1164E0025B089000B22E0204600F060FE42
:406F40001249A039401807882A462146384600F051FA012810D00E480122478305770A4944778A72002D01D0002000E02030002801D000F0F3FBF8BDB089000B641CE4B260
:406F80000028DAD1F8BD000094170020A0102E40D816002010B50088FFF716FE002809D0014640310C460978082905D00B2903D00C2010BD022010BDFFF728FC002801D067
:406FC00009202070002010BD70B503460088FFF7FBFD040008D0254640352878082805D00B2803D00C2070BD022070BD8420005910220830991CFAF7A4FE2046FFF7D8FA1B
:407000002878082804D02046FFF78AFC002801D00A202870204600F0A1FB002070BD000010B50C46002121700088FFF7CDFD03000BD000F06AF9002807D00948F121807A32
:407040000840C00603D4112010BD022010BD022020701A8A1889002103F01EF8002010BD90160020F8B50F46002100910088FFF7ABFD040012D000F048F900280ED0E0791A
:40708000410641D4617E02264A07002A08DB8907402500291ADA2843E07135E00220F8BD02F042F90021017021894180A1898180217E4170E189C1803E7005460178134838
:4070C00002F0C4FC284602F08BFF1DE0204600F02DF9012806D068460AF0D2FF002803D00720F8BD2A20F8BDE07900992843E071204601F063FE607E04213043607604482F
:40710000C28A2046FEF700FE0020F8BD1D040000901600203EB500220F236C460292238100910190628169460EC900200BF0BBF83EBD0000F8B50F46054600F08FFA04009F
:4071400025D003202071254600264035EE76E6702046FFF7B5F901F057F80920FEF79AFDA07800F06BFD0121204600F011FB2E706E70AE703A4600212046FFF7CFFC064902
:40718000887B401C8873A078FFF754FEF8BD284601F0FEF8F8BD0000D816002010B5002801D0002000E0094800280DD0014640310A464978022901D100215170807DC107C7
:4071C000C90F002001F01AF910BD0000F816002070B503460D460088FFF7F6FC04000BD000F093F8002807D01248F121807A0840C00603D4112070BD022070BD2046403040
:40720000418A008A491C41430804C10C5888884201D2122070BD20822079072802D12046FFF7D8F8022028702089002102F05CFF002070BD90160020016A491C016204D106
