:400000000080002011000000E10A0000E10A000010B500F02DFE00F083FD0000F8B572B6802600242E4DF6002C60320021002D4801F0A4FE320021002B4801F09FFEEE228E
:400040002A4B12061A609922294B12041A6006222849294E0B78294F13430B70284B1A60284A294B1A601223336001F0BDFA274801F092FB012001F0C3FA202001F0DAF961
:40008000234A244B02211A608023234ADB053B601368FA200B431360204A214BC0001A600822204B1C602B6893432B6001F056FA1D4801F0B5F980221C4B12061A6080224F
:4000C0001B4B12031A608023DB053B601123194A33600E3B1360184A1360184B1C60F8BD6CF02E4000300F4000400F400000024000500F4000700F40300010400C020B404D
:40010000000004408E6DD80008000440001BB7000600008004010B4078002E406A2D00007C002E4064F02E40DC05000008010B4000010B403000304030003140000E3F403C
:4001400010B5064C2378002B07D1054B002B02D0044800E000BF0123237010BD581200200000000010520100084B10B5002B03D00749084800E000BF07480368002B00D116
:4001800010BD064B002BFBD09847F9E7000000005C12002010520100B80C002000000000002210B5144CA54493B299420AD9835C402B01D9373B00E0303B6C460434A354A2
:4001C0000132F1E76B46002049084900013101AA053351188B4208D05A1E12781C781201A218801880B20233F4E74042C0B286239B009D4410BDC046E8FDFFFF0200303AEE
:40020000D3B2092B0CD90300613B052B01D8573805E00200413A0023052A01D83738C3B218007047F0B5012485B003930F00029204400323002C1AD143080193019B9C4297
:4002400012D2039B65001B19785D0093FFF7D6FF7D1906006878FFF7D1FF3601009B304301341870A4B2E9E7029B1C600023180005B0F0BDF0B517001E00184C0131A544B7
:4002800002AC230001AA0138FFF7CCFF237805003B706278A17812020A435B02D3183380E37822791B021343C89ACA991380019BE418013C22780A70C89A1288911D8B420D
:4002C00005D10D21C998694401F04FFD00E004252800C3239B009D44F0BDC046F4FCFFFF30B50C4C1500A54401AA1C0002ABFFF799FF002809D16B46C69A5B7B1370029B35
:400300001BBA2B606B461B7B2370C3239B009D4430BDC046F4FCFFFF30B5040085B00320062C0CD90D7802303A2D08D10A98029009980190089800902000FFF79BFF05B0F6
:4003400030BD0000F0B5764C764AA54400214BA801F014FD8022002152000BA801F00EFD0C2271494BA800F0C1F9112302AA9B18009308AA06AB4BA90C20FFF7B1FFC4B25C
:40038000002C05D0C1B2694801F000FD0027C2E0089B09A81A0E02701A0C42701A0A827063490422C37001F0D1FC071E03D0614801F068FDEAE702AB5B7C5F48002B1CD1B7
:4003C000C8210AAC20000422890200F08FF9207863780002C018A37858491B06C018E3783C001B04C0180C3801F00EFB049009E03378059A934203D0514801F043FD8AE0A4
:400400000134A4B2049BA34244D94C4D21004D4801F0BCFC290061434B4B2A00C9184BA800F064F9262002ABFF30C0184749FFF7B7FE132601000590454801F0A7FC02AB18
:40044000F6180BAB0193162302AA9B18122202A9521800934BA907AB28000296FFF75CFF050002AB997C3B4801F090FC02AB998A394801F08BFC02ABD98A384801F086FC66
:400480003178374801F082FCEBB2002BB0D0E9B234483AE0344801F0F5FC0024049BA34229D9264D284B290061432A00C9184BA800F01CF9132302AA9B18029316239B1858
:4004C000122202A90BAE0093521807AB01964BA92800FFF721FFC3B2002B02D0C1B2234813E002AB988A310000F006FF00280FD00A211F4809E01F4801F0C4FC80221E4B0F
:4005000001271A6000F06AFF05E001F03FFC02E00134A4B2C2E73800D1239B009D44F0BDBCFCFFFF120200000021030018520100145201004B5201006B5201000D02000019
:400540007A5301008F5201000C2103000A020000A5520100C5520100E55201000553010025530100455301009A530100C253010020540100F7530100C000002010B5002152
:40058000022000F01FFB004710BD70B505000824002001F06BF8012000F042FF6BB20120002B00DB002001F075F8012000F038FF013C012001F05AF86D000220E4B2EDB270
:4005C00000F02EFF002CE3D1200001F04FF80A2000F026FF70BD70B5082500240126002001F044F86400012000F01AFFE4B201F049F8002800D03443012000F011FF013D2C
:40060000012001F033F8EDB2022000F009FF002DE5D1280001F02AF80A2000F001FF200070BD10B5FF2802D1FFF7D5FF02E0FFF7ACFF002010BD10B5002001F017F8002041
:4006400001F028F810BD10B53524022803D0203C032800D0103C002000F0FCFF2000FFF7E0FFFF20FFF7DDFF0400012000F0F2FF200010BD10B5002000F0ECFF9020FFF794
:40068000D0FF0020FFF7CDFF0020FFF7CAFF0020FFF7C7FFFF20FFF7C4FF000284B2FF20FFF7BFFF204384B2012000F0D3FF200010BD000010B5012000F0CCFFFFF7BBFF31
:4006C000FFF7D8FF084B98420DD10320FFF7BBFF0124204007D100F0BDFFB720FFF7A1FF200000F0B7FF10BD13EF000070B50D0004000020160000F0ADFF0320FFF791FF93
:40070000280CC0B2FFF78DFF280AC0B2FFF789FFE8B2FFF786FFA619B44205D0FF20FFF780FF20700134F7E7012000F093FF70BD70B50B4C200000F0B9FA0A4D280000F01B
:40074000B5FA094800F0B2FA084A0949094801F01DFB280000F0AAFA200000F0A7FA70BD4A5501004A5401009C540100B1540100BA540100C6540100F0B506000C0085B0F9
:40078000002C1BD0231C142C00D91423102201A90A810E4ACB8050788B809FB213780002184301960EF064FE051E03D0084801F069FB04E0E41BA4B2F619E1E72500054869
:4007C00001F060FB280005B0F0BDC046D4230020E95401000855010070B50D000400044801F050FB29002000FFF7C6FF70BDC046425401001FB50C00282800D186E030D86F
:4008000022286ED016D8032866D007D8012851D0022800D0B3E009785B48B2E004285DD0212800D0ABE0E0788B784A780978009056485BE025285CD00BD8232853D024285B
:4008400000D09CE0E0788B784A780978009050484CE0262850D0272800D090E009784D488FE04C2868D011D82C285CD007D8292856D02A2800D082E00978474881E04128EF
:4008800053D0422800D07AE0444875E0FA2872D006D84E2858D0572871D14988404870E082235B00984264D00623FF33984266D13C4861E00223002403A80370447002F00A
:4008C000E1FB200000F0AAFA0100A04202D0364801F05CFA35484FE035484DE0097835484FE0354848E0096834484AE001F04EFA49E00978324844E0324C3348217801F0AB
:4009000045FA23783148042B3DD135E0304801F0B9FA002000F082FA011E2E4833D030E009782D482DE02D4826E02D4B2D481A78597801F02BFA26E089892B4801F026FA42
:4009400020680EF0E9FD1EE08989284801F01EFAA189274801F01AFA2189264801F016FA6189254801F012FA21896068FFF734FF09E0224800E0224801F084FA03E00100EC
:40098000204801F003FA1FBD4D5501009355010025560100C656010049570100C15701000D590100E758010029550100E55801006655010077550100D7550100F9550100BD
:4009C00068560100D223002085560100BA560100EC5601000F5701003357010075570100D42300209B570100E1570100015801002B580100625801008E580100C258010056
:400A00004559010064590100F8B5FFF753FE62B6224C200000F04AF9200000F047F9204D280000F043F91F4800F040F91E4800F03DF91E4F1E4E3A0031001E4801F0A6F925
:400A4000280000F033F9200000F030F9200000F02DF9194800F08AF9184B1B68402B17D1200000F023F9280000F020F9144800F01DF93A0031000F4801F088F9280000F0AB
:400A800015F9200000F012F9FFF75CFC002803D1FFF74EFEFFF772FDFEE7C0464A5501004A54010078590100B4590100B1540100BA540100C6540100F5070000C000002006
:400AC000C759010070B50E0015000C00A31B9D4204DD207800F0F4FD0134F7E7280070BD10B501F007F903680C2B00D1FEE7FEE7030010B580240849084A0868E400C318F1
:400B00009A1AA24201DC0B6005E001F0F3F80C2303600120404210BDBC0C0020E0230020F8B500250F49104B01394A1C14D000221F685C689E68A018B24203D0B858A0500C
:400B40000432F8E70200DE68141AA64201D020C2FAE710330139E8E701F0D2F8FFF754FFFEE7C04601000000E85C010001210F4A70B5136814008B43136000230C4D0D4EA6
:400B80000D489A002900032B00D8B15801338150302BF6D1FFF742FA084B1A68002A00D11A60012223681343236070BD00001040E10A00000000000000000020C00000207C
:400BC00000470000013810B50B2830D80902494200F010FF06080A0C0E10141216191B20174B13E0174B16E0174B0AE0174B12E0174B0BE0174B09E0174B02E0174B00E0A3
:400C0000174BC91817E0174B05E0174BC9180878C0B214E0154BC9180A7848788C780002230418430300C8781343000606E0002000F0D2FB00210B7848780002184310BD0F
:400C4000C0FF0300C1FF0300C5FF0300C9FF0300D0FF0300D1FF0300D6FF0300D2FF0300D4FF0300D8FF0300DCFF0300E0FF03000C4B10B51A68102313400B4A00D11360DF
:400C80001368802B0DD10024022021001460FFF799FFA04205D021000220FFF793FFFFF78FFF10BD00030B40C000002070B5012405000078002805D000F002FD285D013459
:400CC000E4B2F7E770BD000070B51C4B002905D1DE7F190000231A001C0011E01A003F3216782033F5E7002C11D1CA5C002A23D00133DBB2CD5C083D012D04D9D318DBB2BD
:400D0000B342F0D301E00124FAE7002C14D0D2180133DBB2D4B21A0006E0D51A455D002D05D08D540132D2B2A242F6D304E08D540132D2B29442FAD870BDC046C80C0020B0
:400D40000023054A10B51370044A1370044A137000F054FA10BDC046D7230020D3230020D623002010B500F049FA10BD30B591B0040014221D490BA800F0F7FF1C4D2B788D
:400D8000002B03D1FFF7DCFF01232B700120002C29D0184B00211C601B2408A805AA06AB0181117016311C805C806944173C426008931C7101F0B4FF002814D10523AE22DA
:400DC00002900190009312010BAB0B490B4802F01BF8002807D10122094B15211A7009488F320FF0A7FD11B030BDC046E059010078120020B8230020C8000020D10F000081
:400E0000D2230020F459010010B502F0A7F80022014B1A7010BDC046D2230020020010B50120022A2FD8184B1B78042B29D1174C2178194225D1164B002A08D11900A02055
:400E400050310A80596C80000880A0300BE0012A0AD11900962050310880C820596CC00008808020C00148800A49403318000A700DF034F9002806D10422237813432370B8
:400E800001E00420FF3010BDD2230020D7230020C80C0020D623002010B50DF0D7F90821024A13780B43137010BDC046D72300207047000010B504000120002C1CD01422B6
:400EC0000E4B5B88013B53430D4AD3181A69187B00235168DAB2904205D9E25CCA54002A01D00133F6E700212000FFF7EDFE20000121FFF7E9FE002010BDC046EE5B01008E
:400F0000F4590100010010B50120002918D014220C4B5B88013B53430B4AD3181B6958681C780023DAB2A24204D30022DBB2CA54100005E0C25C002AF7D0CA540133F1E7AC
:400F400010BDC046EE5B0100F4590100037840780002184370470170090A41707047000070B58389040000250B2B1AD129000430353322000FF0F6FC051E0DD16068FFF7C1
:400F8000E5FF094B21001B68820702D58220400001E00620FF3098470121044A13788B431370280070BDC046B8230020D7230020002382799A4208D1821D0378002B03D156
:400FC00001309042F9D100E00123180070470000F0B501267F4B85B01A78040032430D001A701F00282861D011D8062869D006D8B04223D0052800D0DDE00A785EE0262869
:4010000000D18AE000D986E021286BD0D3E0432800D1A2E008D841284BD0422800D0CAE000226D4B5A704AE04F2800D1B9E0502800D1BDE04C2800D0BDE096E0082303AE31
:40104000337000233000737002F01CF8082330003370747002F016F8604B1B6818000093FFF7A6FF019000280BD0009801F0B8FF5A4B00211868FFF71BFF584B21001868CD
:4010800008E0574801F0ACFF01995548FFF710FF21005348FFF70CFF03200CF0B1FE3F2333700023300073700CF0C8FE04224D4B05E00222484800F058FE00224A4B1A706B
:4010C00079E00B78002B76D14B78002B07D10822464BDA8088329A80454A4B601A603B78012229E01B789B0665D442490B78102B01D10B3BCB70384B18780CF0ADFF03A9F0
:401100000880002803D03C4B36201B68984701223B78134319E00222C9E7324B19789C46022948D03A78324245D004223878104204D0032119703B78934306E008203E7890
:40114000064204D01A703B7883433B7033E0032931D10423624613702DE04988162900D9172128880EF050F925E00800FFF7F8FE3B78334202D0280000F042F83B78DB0713
:4011800019D4002809D0122303A98B70AB89C87028680B800EF02EF90DE028680EF0BCF909E01B78334206D0080000F067F802E0080000F07BF811233A781A4208D00122E1
:4011C0003B78290093433B700B4B20001B68984705B0F0BDD7230020D42300201C0D0020200D0020D2230020D32300207C120020A80B0020830E0020B82300207047000082
:4012000013B583890200152B11D118496C33FF33CB5806210193DB0205D50021043040230FF0A0FB0100124A0120137819E00021142B18D12C3304300FF094FBC623010047
:4012400001200A4A5B00D3580A4A5B680A4C13609A78DB78A0701B021343054A07332380137883431370080016BDC046F4590100D7230020D82300208412002010B5436821
:401280001B89142B0CD1007A012804D10EF002F90022044B1A800121034A13788B43137010BDC04684120020D723002043681A89142A1AD1427A012A12D108211B680B4AC2
:4012C000FF3113609A78DB781B02134307339BB2074A8B4201D8138000E01180012393700121044A13788B4313707047D823002084120020D72300200023F0B5C7B0029308
:4013000003932C4B050098424FD800294DD0802206A8520000F029FD274B9D4201D8274B00E0274BFF220493264C2749274B04AE726026600B60C046236801911B0F0F2BA6
:4013400004D021680023090F0A2901D0236813400293029F002F2AD100F027FA0397029B002B16D11A4A2D040492049A194915430495019D2660134A2960C0462168090F6C
:401380000F2903D01168090F0A2901D01368DBB20293039B002B05D10393039B002B01D0039B029300F005FA01E004230293029847B0F0BDFF030000FF010000B6D7000095
:4013C000B6D70001080010400400104004000080B6D800000500008001BE7047034A044913689BB20B4313607047C0460CED00E00400FA0570B5802504002D02064BAC42AE
:4014000005D9586800F0C8F9044BE418F6E79868604300F0C1F970BD880E00200080FFFF10B5034B1B7B584300F0B6F910BDC046880E0020F0B5050087B000F0B6F9EB1E92
:40144000049003932D2B5CD8314B1B789D4204D8304B1C78304BE4B21EE0304B1B789D4204D82F4B1C782F4BE4B215E02E4B1B789D4204D82D4B1C782D4BE4B20CE02D4BAD
:401480001B789D4204D82C4B1C782C4BE4B203E02B4B1C782B4BE4B21B78EA1EDBB20193294B2A4F9A5C059302922F2A04D92A2D02D919263E6008E03F233E681E40029BD2
:4014C000B34205D2214B029A1A60052000F064F91C4B1F4AED182B780520DBB213601D4B019A1C601C4B1A60FFF79AFF029BB34208D9059B039A05209B5C3B6000F04CF904
:4015000000E001BE049800F054F907B0F0BDC04640F3FF0F41F3FF0F42F3FF0F43F3FF0F44F3FF0F45F3FF0F46F3FF0F47F3FF0F48F3FF0F49F3FF0F4AF3FF0F4BF3FF0F7B
:401540004CF3FF0F4DF3FF0FFA5B01002CFF0B4028FF0B401CFF0B4020FF0B40012370B5040080200E4900020A681D001A430A600C490D4A11600D490A6802430A60002C66
:4015800001D100200AE00120FFF74AFF084B1B682B42F6D1013C002CF5D1102070BDC04660F02E400220000078002E4010002E400C002E4001200A4A136883431360022347
:4015C00011689943116007492E330A689A43203B1A430A6007220B68934303430B60704700F02E4000FF2E4010B5FFF7E3FF8021024A090613680B43136010BD00F02E405E
:401600000122124B70B51C681440002815D0904216D1022507261968A94319600C490A68B2432A430A600A682E35AA43103D2A430A601A681043186005E0FFF7BBFF02E0F0
:401640000020FFF7C9FE200070BDC04600F02E4000FF2E40012304490A689A43D2B2034013430B607047C046000004401023044900010A689A43D2B2034013430B60704717
:4016800000000440024B18688007C00F7047C0460400044008230449C0000A689A43D2B2034013430B607047000004400000000000000000000000000000000000000000B4
:4016C000FEB5494652465B460EB407462E4909688A462E4A12682E48022100F095F903002A480068C0182A4900F08EF906001F3EB346234A126801219140C9430C0001258C
:40170000002600F052F8814651460B6823400B605846043000F040F83800F040284090400B68234003430B60584600F035F80136072EF1D900200130012090400B68234080
:4017400003430B605846063000F026F8484600F030F8C046C046C0460EBC894692469B46FEBDC046C046C046C046C046C046C046C046C046C046C046C046C046C046C046B7
:40178000C40C002074120020C00C0020980E002000C20100000000000230800803D00138FDD1C046C046C0467047EFF3108072B6704780F31088704701607047016070477E
:4017C0002B4B2C4A19782C4B09021B7819432B4B1B7812781B021343294A934204D1072909D1284B033906E0D4221201934202D1042900D1234B244A1360244B244A1960E5
:40180000244B1B7812781B021343234A134200D1224B234A23491360234A0B7812781B021343224A934204D0214A934201D0052B00D1204B204A1360204B214A1B6812682E
:40184000AA2A14D11F2B12D90B780E2B0FD11D4B1D4A1B7812781B0213431C4A13601C4B1C4A1B7812781B0213431B4A1360704759F1FF0F5EF1FF0F58F1FF0F5FF1FF0F50
:40188000580B0000580D00006C002E4074002E405AF1FF0F5BF1FF0FFFDFFFFF0220000078002E405DF1FF0F5CF1FF0F0F0F000005050000050F000080002E40EC0F00F041
:4018C000E00F00F06DF2FF0F6CF2FF0F84002E406FF2FF0F6EF2FF0F94002E4010B5FFF79FFD10BD10B5FFF785FD10BD10B500F05FF810BD10B500F063F810BD10B500F0C6
:401900005FF8034800F02AF8032000F02DF810BDED19000010B5024800F036F810BDC046ED19000000487047010200002B2070472B2070472B2070472B2070472B207047D6
:401940002B2070472B2070472B2070472B2070472B2070472B20704770470000014B18677047C0460000002010B50400FFF71DFFC021044AA40113688B431C431460FFF73B
:4019800018FF10BD0CE400E010B58024054B64011C60054B18670320FFF7E6FF034B1C6010BDC04680E100E00000002000E100E08022024B52011A607047C04600E100E013
:4019C0008022024B52011A607047C04680E100E010B5FFF7EAFE0421034A13688B43136030BFFFF7E6FE10BD10ED00E010B513F0FBFB10BD02B4714649084900095C4900A9
:401A00008E4402BC7047C046002243088B4274D303098B425FD3030A8B4244D3030B8B4228D3030C8B420DD3FF22090212BA030C8B4202D31212090265D0030B8B4219D376
:401A400000E0090AC30B8B4201D3CB03C01A5241830B8B4201D38B03C01A5241430B8B4201D34B03C01A5241030B8B4201D30B03C01A5241C30A8B4201D3CB02C01A524123
:401A8000830A8B4201D38B02C01A5241430A8B4201D34B02C01A5241030A8B4201D30B02C01A5241CDD2C3098B4201D3CB01C01A524183098B4201D38B01C01A5241430977
:401AC0008B4201D34B01C01A524103098B4201D30B01C01A5241C3088B4201D3CB00C01A524183088B4201D38B00C01A524143088B4201D34B00C01A5241411A00D2014686
:401B0000524110467047FFE701B5002000F0F0F802BDC0460029F7D076E7704703460B437FD4002243088B4274D303098B425FD3030A8B4244D3030B8B4228D3030C8B428F
:401B40000DD3FF22090212BA030C8B4202D31212090265D0030B8B4219D300E0090AC30B8B4201D3CB03C01A5241830B8B4201D38B03C01A5241430B8B4201D34B03C01AD3
:401B80005241030B8B4201D30B03C01A5241C30A8B4201D3CB02C01A5241830A8B4201D38B02C01A5241430A8B4201D34B02C01A5241030A8B4201D30B02C01A5241CDD229
:401BC000C3098B4201D3CB01C01A524183098B4201D38B01C01A524143098B4201D34B01C01A524103098B4201D30B01C01A5241C3088B4201D3CB00C01A524183088B4251
:401C000001D38B00C01A524143088B4201D34B00C01A5241411A00D201465241104670475DE0CA0F00D04942031000D34042534000229C4603098B422DD3030A8B4212D318
:401C4000FC22890112BA030A8B420CD3890192118B4208D3890192118B4204D389013AD0921100E08909C3098B4201D3CB01C01A524183098B4201D38B01C01A52414309D0
:401C80008B4201D34B01C01A524103098B4201D30B01C01A5241C3088B4201D3CB00C01A524183088B4201D38B00C01A5241D9D243088B4201D34B00C01A5241411A00D260
:401CC0000146634652415B10104601D34042002B00D54942704763465B1000D3404201B5002000F005F802BD0029F8D016E770477047C046014B18687047C04654120020AC
:401D00000E4B70B500251E000D4CE41AA410A54204D0AB00F35898470135F8E713F0D2FF084B00251E00084CE41AA410A54204D0AB00F35898470135F8E770BDD05C0100C3
:401D4000D05C0100D05C0100D85C010030B50024A24208D0035D651C0C5DA34201D0181B02E02C00F4E7002030BD002310B59A4203D0CC5CC4540133F9E710BD0300821891
:401D8000934202D019700133FAE770470FB40B4B13B51C68002C05D0A369002B02D1200000F03CFA05AB049AA1682000019300F001FC16BC08BC04B01847C0465412002044
:401DC00070B505000E00002804D08369002B01D100F024FAAB69AC68002B02D1280000F01DFA254B9C4201D16C6808E0234B9C4201D1AC6803E0224B9C4200D1EC68A389D6
:401E00001B0702D52369002B11D12100280000F09BF800280BD0012040422BE0013B0136A360002B08DB23685A1C226019703178A3680029F2D10BE0A269934201DB0A2989
:401E4000F1D12200280000F027F8431CEFD1E2E7013BA360002B08DA22000A31280000F01BF8431CD7D00A2004E00A2023685A1C2260187070BDC046305C0100505C0100D5
:401E8000705C010010B5034B01001868FFF798FF10BDC04654120020F8B505000F001400002804D08369002B01D100F0B7F9234B9C4201D16C6808E0214B9C4201D1AC6877
:401EC00003E0204B9C4200D1EC68A369A360A3891B070AD52369002B07D023682269FEB2981A636998420FDB08E02100280000F02BF80028F1D0012040421DE021002800A9
:401F000000F01EF90028F6D1A3680130013BA36023685A1C22601F706369984205D0A3893000DB0708D50A2E06D12100280000F007F90028DFD13000F8BDC046305C0100F0
:401F4000505C0100705C0100364B70B51D6806000C00002D05D0AB69002B02D1280000F05DF9314B9C4201D16C6808E02F4B9C4201D1AC6803E02E4B9C4200D1EC680C2275
:401F8000A35E9AB2110723D4D10607D409220120326037321343A381404242E0530713D5616B002908D023004433994202D0300000F02CFA002363632422A3899343A381BD
:401FC00000236360236923600822A3891343A3812369002B0BD1A0238022A1899B0092000B40934203D02100300000F0D1F90123A289134005D00023A36063695B42A361C5
:4020000003E0920700D46369A36000202369834207D10C22A35E1A0603D540221343A381013870BD54120020305C0100505C0100705C0100F7B58A8905000C0013075AD42A
:402040004B68002B02DC0B6C002B19DDE76A002F16D000232E682B6080235B011A4001D0606D14E00123216A2800B847431C0ED12B68002B0BD01D2B01D0162B02D12E600F
:4020800000205AE04022A3891343A38155E0A3895B0706D56368C01A636B002B01D0236CC01A00230200216A2800E76AB847A389421C06D129681D293AD8204ACA40D20789
:4020C00036D50022626022692260DB0405D5431C02D12B68002B00D16065616B2E600029CED023004433994202D0280000F08EF90020606321E00F69002FC1D00B680F60A0
:40210000DB1B01930023920700D14B69A36003E0019B3F181B1A0193019B002BB0DD019B3A00216A2800A66AB0470028F0DCA389402201201343A3814042FEBD0100402093
:402140000B6970B505000C00002B01D100201CE0002804D08369002B01D100F05FF80B4B9C4201D16C6808E0094B9C4201D1AC6803E0084B9C4200D1EC680C22A35E002B03
:40218000E4D021002800FFF755FF70BD305C0100505C0100705C010010B5024900F0B0F810BDC04641210000002310B5040003604360836081814366C28103614361836118
:4021C000190008225C30FFF7D9FD054B24626362044BA362044BE362044B236310BDC046312B0000592B0000912B0000BD2B000070B568254B1E5D430E002900743100F00E
:4022000051F9041E08D000212A00016046600C30A0606832FFF7B2FD200070BD836913B50400002B28D18364C3640365134B144A1B6882620193984201D101238361200063
:4022400000F020F86060200000F01CF8A060200000F018F80022E06004216068FFF7A4FF01220921A068FFF79FFF02221221E068FFF79AFF0123A36113BDC0462C5C0100CC
:4022800099210000F8B51D4B06001D68AB69002B02D12800FFF7C2FF4835AC686B68013B05D40C22A75E002F10D06834F7E72B68002B01D02D68F0E704213000FFF798FFC1
:4022C00028600028F6D10C23336016E0012320005B42E3810233A38167662760A760676027616761A7615C3008223900FFF746FD20006763A763A764E764F8BD2C5C0100E7
:40230000F7B504000700002601914834002C16D06368A5680093009B013B00930DD4AB89012B08D90E22AB5E013304D029003800019B984706436835EDE72468E6E7300049
:40234000FEBD000070B50E001D000E23C95E90B01400002906DA00232B60B3891B060FD540230FE001AA00F055FC0028F3DBF023029A1B021340054A9B185A4253412B609E
:402380008023DB000020236010B070BD00E0FFFFF7B502268B8905000C00334210D101AB6A46FFF7CFFF00990700280000F07AF800280CD10C22A35E9A0523D43343A38134
:4023C0002300473323602361012363611AE080220D4BAB62A38920601343A381009B20616361019B002B0AD00E23E15E280000F023FC002803D00122A3891343A381A38912
:402400001F43A781F7BDC0469921000070B50500002944D00C1F2368002B00DAE418280000F03BFC1E4A13681100002B02D16360146031E0A3420DD92268A018834203D151
:4024400018685B688218226063600C6024E0A24203D813005A68002AF9D11E689819A0420BD12168711858181960824214D110685268411819605A600EE0A04202D90C2311
:402480002B6009E021686018824203D1106852684118216062605C60280000F0FFFB70BDB4230020032370B5CD1C9D43083506000C2D01D20C2501E0002D01DBA94202D90B
:4024C0000C23336048E0300000F0E7FB234B1C681A002100002913D00B685B1B0DD40B2B02D90B60CC181EE08C4202D1636813601AE04B6863600C0016E00C004968E9E7B1
:40250000174C2368002B03D1300000F0FFFA20602900300000F0FAFA431C18D00323C41C9C43A0420DD12560300000F0B7FB200007220B30231D9043C31A0ED05A42E25075
:402540000BE0211A300000F0E1FA431CEBD10C233000336000F0A2FB002070BDB4230020B0230020936810B5013B9360002B05DA9469A34208DBCBB20A2B05D01368581C35
:4025800010601970C8B201E0FFF786FC10BDF8B506000F001400D518AC4208D021783A003000FFF7DFFF0134431CF5D100E00020F8BD0000F0B59FB006000F0002920593DE
:4025C000002804D08369002B01D1FFF727FE7F4B9F4201D1776808E07D4B9F4201D1B76803E07C4B9F4200D1F768BB891B070AD53B69002B07D0002306AD6B6120336B7681
:402600001033AB763DE039003000FFF79DFC0028F1D001204042D6E0059A111D12680591002A00DA7FE00992013423782E2B00D18DE021780322684800F024FB002807D021
:40264000654B2A68C01A4023834013432B6001342178631C062261480293297600F012FB002800D19DE05E4B002B00D090E00722059B07339343083305936B69039A9B188E
:402680006B61029C2378002B04D1029BE31A049312D003E0252BF8D00134F3E7049B029A39003000FFF773FF431C00D186E06A69049B944663446B612378002B7ED0012260
:4026C000002352426A6002A95432521801342B60EB60AB601370AB6521780522414800F0D1FA002808D03F4B2A68C01A0123834013432B600134EFE72B68DA0604D5532287
:40270000202102A8121811701A0704D553222B2102A81218117022782A2A00D17CE7099B00200A2105E05242EA60022213432B607AE72278303A092A04D84B4301349B1830
:402740000120F6E7002800D16FE709936DE763782A2B0AD1059B02341A1D1B680592002B01DA01235B42079363E700230A201A0001346B6021783039092904D8424301340E
:4027800052180123F6E7002B00D152E7079250E705AB00933A00144B2900300000E000BF07E005AB00933A000F4B2900300000F08BF80390039B013300D05EE7BB895B062C
:4027C00000D526E70B981FB0F0BDC046305C0100505C0100705C0100965C01009A5C010000000000905C01008F250000F7B5170001938A680B6900900C00934200DA130025
:4028000022003B6043321278002A01D001333B6023689B0602D53B6802333B60062523681D401ED0230043331B785A1E9341226892061CD53020E1184331087021005A1C44
:4028400045310978A2184332023311700FE022000123193201990098089EB047431C0ED00135E3683A689B1A9D42F0DBDAE72200019943320098089DA847431C02D10120FD
:40288000404220E006232068E1683A6803400025042B03D18D1AEB43DB171D40A3682269934201DD9B1AED180027BD420AD0220001231A3201990098089EB047431CDED0FA
:4028C0000137F2E70020FEBDF0B58BB006920A0043320793059004920A7E0C00109B6E2A00D1ABE011D8632A22D009D8002A00D1B5E0582A00D0C5E045310A70814A4FE043
:40290000642A1DD0692A1BD0BCE0732A00D1AAE009D86F2A29D0702A00D0B3E0202209680A43226037E0752A1FD0782A33D0A9E00E001A684236111D196013683370A4E0F4
:4029400021681A68080606D4490604D5111D19600023D55E02E0111D19601568002D3BDA2D23049A6D42137036E021681A68080606D4490604D51568111D1960ADB202E041
:40298000111D196015685F4B227E039308276F2A1DD00A271BE022007821453211705A4A19680392081D226818600D68100602D4500600D5ADB2D30702D520231A432260E0
:4029C0001027002D03D1202322689A4322602300002243331A7002E00A274A4B03936368A360002B09DB0422216891432160002D05D1049E002B11D07BE0002D79D0049EEB
:402A000028003900FFF786F8039B013E5B5C280033703900FEF7F8FF051EF1D1082F09D12368DB0706D563682269934202DC3023013E3370049B9B1B23612BE009681A68EA
:402A4000080607D4490605D5111D19601368A28A1A8004E0111D1960136862691A600023049E236116E01A68111D1960166800216268300000F006F9002801D0801B6060CD
:402A8000636803E0260042363270012323610023049A1370079B09AA00932100069B0598FFF7A4FE431C02D10120404227E02369320006990598079DA847431CF4D0236846
:402AC00000259B070FD4099BE068984217DA180015E022000123193206990598079EB047431CE1D00135E368099A9B1A9D42F0DBE9E72600039B42361B7833708EE70BB0FA
:402B0000F0BDC046A15C0100B25C0100002370B5064C050008002360FDF7EAFF431C03D12368002B00D02B6070BDC046DC23002070B50C000E25495F00F0B2F8002803DB8C
:402B4000636D1B18636503E0A289024B1340A38170BDC046FFEFFFFFF8B51F008B8905000C001600DB0505D50E23C95E0022022300F074F8A289054B28001340A381320091
:402B80000E23E15E3B0000F01FF8F8BDFFEFFFFF70B50C000E25495F00F060F8A389421C03D1054A1340A38104E0802252011343A381606570BDC046FFEFFFFF10B50E231D
:402BC000C95E00F015F810BD70B50500080011000022064C22601A00FDF774FF431C03D12368002B00D02B6070BDC046DC230020002370B5064C05000800236000F064F81E
:402C0000431C03D12368002B00D02B6070BDC046DC230020002370B5064C050008001100236000F059F8431C03D12368002B00D02B6070BDDC230020002370B5064C050053
:402C40000800236000F050F8431C03D12368002B00D02B6070BDC046DC23002070B50500080011000022064C22601A0000F044F8431C03D12368002B00D02B6070BDC04605
:402C8000DC230020C9B28218904204D003788B4202D00130F8E70020704770477047000070B50500080011000022064C22601A0000F02AF8431C03D12368002B00D02B6022
:402CC00070BDC046DC23002058220120014B40421A607047DC23002058220120014B40421A607047DC2300205822024B00201A607047C046DC23002058220120014B40426A
:402D00001A607047DC23002058220120014B40421A607047DC230020006B010028000000F8B5054636480F460078002802D002242046F8BD002F60D000243249002D16D067
:402D40002A89D0070DD02868002808D003881B3BE12B04D24088FB2801D81B2801D2012409E0900707D56868002804D1F7E70020088108604860002CDAD122482E8906815B
:402D80001F481B21801D01804180042101711C490020891C0870F00705D019480622801D2968FEF7E2FF1749B00703D56A68144812788270124D0E46AD1D281F0D6048608D
:402DC00002F088FB284602F077FB30890EF026FF30890EF0F3F828880EF0F6F830890FF099F80346103300F043FC1F21C018890140183880A91F88809AE7012498E70000C7
:402E00009C0E002094120020FFB585B0002768460E9D07734F481C460078002802D0082009B0F0BD10990F9801900095029105A807C800F065FC0028F2D16946264603AB9C
:402E400084460873002C19D0002115E08A00B75A082F09D990198078002805D0083FB7521878401C187005E0002914D00027B75290198770491CC9B2A942E7D360460028B7
:402E8000CED10F98002809D0109901F027FE002804D00120C4E701208446EFE702F086FA2D480021416081600599016021888180022D07D3A1798171A17AC171A189018142
:402EC000218A418100211EE0481C19E082008B00A75AE65ABE46BE4211D26F463E80B4461E190296B678BE7001967646E6521719029EBB78B3706646A652019EBE70401C9E
:402F0000A842E3D3491CA942DED3134822460C3000906846037B0799069800F079FC0028B8D168460B4C007B60700B480C3002F06DFA0028AED1084907480C3108F04CF8E9
:402F40000028A7D108F072F80028A3D10121217066E700009C0E00208812002010B508F059F802F023FA02F079FA084C2078002801D000F0DDFC00F0F1FCFF2001F05EFCB8
:402F8000FF2001F06BFC0020207010BD9C0E002010B508F03FF802F009FA02F05FFA00F0C7FC074908460C3808F016F8002806D108F03CF8002802D1024A0121117010BDA2
:402FC000941200209C0E002010B502F0D9F910BD10B502F0EBF910BD10B500F09FFC10BD10B50749044609780220002907D1204602F04AFA002802D120460BF013F810BD93
:403000004010002010B502F0D9F910BD1CB5FF206946087100200870FFF7DAFF6A4601A9062001F0C5FA6946002008561CBD000038B504460120002C20D0617801291DD8A9
:4030400000290BD0FF25E535FFF7C2FF0C4828180088C0B22070072803D00EE0FF25CD35F2E7002069460870684601F0CBFB69460878012801D108202070002038BD0000A7
:4030800000102E40F8B504460120002C26D06178012902D92278092A20D8002905D0FF25E5352078092803D004E0FF25CD35F8E708202070FFF78CFF2078114F114E082834
:4030C0000DD0002000F028FA70780128207810D00D4969180880FE2070700020F8BD012000F01AFA0720B8810549203188800120F2E7B8810248217820308180EBE70000A1
:40310000C0112E40380F002000102E400121002807D005494A8842804A784270097801700021084670470000CE0E0020F8B504460120002C52D0217808294FD26178042989
:403140004CD26088102166283DD800283BD065882348662D45801BD801270026BF020A2D33D90A212846FEF7D5FCC0B2072800D907200A2141438D4204D9691ACEB21F2EA2
:4031800000D31F264101314339431648FEF714FB134D60786870217829701349496A8A0781001148920F11432430FEF707FB687800280CD0401E022181401820FEF794FD83
:4031C000C000083804E06180C1E72946DCE7B82081B204482030FEF7F1FA0020F8BD0000CE0E0020B8102E4040F02E4070B505460124FFF7EDFE002D04D0082128460FF0F7
:4032000049FD0024204670BDF7B582B069460AF0EFFC050041D1FFF7DBFE6846008803F0BDFE040038D004F05AFA002834D0FF278820493700593E46002805D01849897A49
:40324000890601D5878AC68A204602F083FB01280DD006F021FB50210A5B617903F0D4F8283081B233463A46204606F039F820464030C28A04998A4200D9C182C18AA07810
:4032800005F000FA0398012801D901200390A078039905F0FDFA00E00625284605B0F0BDFC160020F8B50E4669460AF0A1FC050033D1FFF78DFE6846008803F06FFE0400B5
:4032C00019D004F00CFA002826D01548F121807A0840C00621D520464030418A008A491C41430804C00C0F4986420CD326822079072802D011E006250FE001200870204629
:4033000003F03EFA09E0002E07D100200870A078002104F069FD00E002252846F8BD0000FC160020380F0020F8B5012406460D46002925D013480078002808D0FFF748FEE7
:40334000694630460AF054FC040003D018E000200880F8BD6846008803F020FE06000ED004F0BDF900280AD00748F121807A0840C00602D5308A288002E0022400E0062427
:403380002046F8BD380F0020FC1600200121002808D0FF214731C1800321018004214180002181800846704710B501F009FA012801D101F00BFA10BDF0B589B015460F46A7
:4033C00006460124FFF704FE002E20D0002F1ED0002D1CD0102239466846FEF7C6FC1022314604A8FEF7C1FC102168460FF076FE102104A80FF072FE2B46102204A9684657
:4034000006F0FEF9102128460FF068FE0024204609B0F0BD38B5FEF785FA02F067F803211948FEF7CBF90120FEF758FA16483038406A04218007800F084381B20090124840
:403440000C38FEF7BBF91148016802221143009189B2FEF7B3F9B8210D48FEF7AFF90C48032109021438FEF7A9F9094C5321D83C2046FEF7A3F907210648FEF79FF954213B
:403480002046FEF79BF938BD70F02E40001F2E40D8102E4098142E407CB5FF24069E079D00280BD0002909D0002A07D0002D05D0002E03D0002B01D01B2B01D9012406E091
:4034C0000096019506F0CBF9042800D1002420467CBD7CB5FF24069E079D00280BD0002909D0002A07D0002E05D0002D03D0002B01D01B2B01D901240BE00096019506F033
:4035000067F9042802D0052802D002E0292400E0002420467CBD000010B50A4A141D012808D009491046FEF749F908492046FEF745F910BD04491046891CFEF73FF90349BA
:40354000491DF3E788002E4031D000003AE3000010B5064A012805D01921C9021046FEF72DF910BD1D21C902F8E7000090002E4001460120002903D0024A002012880A80C7
:40358000704700005410002010B50122002803D011490B88984201D9012010BD14234968434359182039C9890C4B994208D0DB1E994205D05B1C994202D05B1C994209D1D1
:4035C000C108074B44075A5C640F0120A04082435A540022104610BDCC10002003280000901D0020014610B50120272903D8084601F086FF002010BD10B50121002808D09F
:403600008278072A05D80278272A02D801F086FF0021084610BD0000014608B50120002909D0002003460090064A074800F0D2FA002801D0022008BD034A0121521E117070
:4036400008BD000085B00000DD0F002010B5074C02202178012905D1607800F00FFB002801D0022010BD0021217010BDDC0F0020134A1088810703D08107890F401A001D46
:4036800011791030484381B25088820703D08207920F801A001D800040180A494030098980B2CA0701D0503080B2890706D504495422091F09785143081880B27047000046
:4036C000A20E00209412002070B504460120002C12D02368002B0FD0616800290CD0074D06222889208118462968FEF73EFB6968606809780170002070BD000094120020AA
:40370000FFB58446384F1C460020BB883F78054602460646002F11D100290ED0029999420BD36146002908D0002C06D00A99002906D02E4B0B99994202D2012004B0F0BD23
:40374000002144E0AB001F19BF78002F3BD0E35A002B38D07B43591889B22B0000F04AF8050410161C253100A7782388BC46FF27233BEB37BB4222D26346032B1FD322E0AA
:40378000A388002B1FD0302B19D31CE02389002B19D0282B13D316E0A289002A13D01346134F233BBB420AD20DE0268A002A0AD033460F4F233BBB4201D2964203D90120ED
:4037C0000EE0002001E000280AD16D1CEDB2099B9D42B7D31C2463435B1802998B42ACD89642AAD8AAE700009C0E002079020000BAFF000030B47446641E2578641CAB424A
:4038000000D21D46635D5B00E31830BC18470000FFB583B0002469460C801F4606468C80002806D00598002803D004983043800701D0012466E0002FFBD0344904980988E3
:403840008842F6D3FEF766F8FEF754F800F06AFC002855D100F0D4FD002851D12C49084601F070F905042D0C4AD12A480499066081800021C18007810C98007AC00704D0DF
:40388000684601F0ACFD040007D10C98007A800703D501A801F0ACFD0446BF1DFEB2002C20D13146059800F085F804001AD10EF03FFB040016D16A46108892880836851861
:4038C000144AF1B29088D288AEB29319984207D3401B801A80B201F027FC050007D000E0FF25012400F0B6FA002D04D008E0F8B200F044F9F6E700F0D9FA0749012008706C
:4039000000F022FC204607B0F0BD0000A00E0020A13A0000A0120020A80E002010B503480078012801D101F0A1FA10BDA80E002010B500F003FE002803D100F009FC0028DD
:4039400001D0FF2010BD0448007A801DC0B200F02DF9002010BD0000A012002010B500F009FE01F021F90449002008608880C88008810249087010BDA0120020A80E002033
:4039800070B5084B0446DA889E8800205518B54206D81D68AA182260DA885118D98070BD032070BDA01200200148008970470000A0120020F0B587B007460D46002089009F
:4039C000009006916846FFF7DBFF844600285DD1304800990160002117E02E4B88001A680629115406D22C4C0419667882185670628805E0C419203CA67A82185670228983
:403A00001B68C018491C4280C9B2A942E5D300242DE0601CC2B2059025E01E4FA30039689600581840887118039604904E88B04217D938466F46FE80B6464F786E4677712E
:403A40000297049F4F800168039F5E18767879184E700168764659184E800068029F18184770521CD2B2AA42D7D30598C4B2AC42CFD36046002809D168460699FFF780FF94
:403A80008446002802D1054900980860604607B0F0BD0000AC0E0020F85C0100B00E00207047000010B5002809D005494A68002A05D0011F08788000105801F0E3FA10BD3D
:403AC000AC0E002010B50446FFF76EFFC0B2801DA0420CD307484068002808D0A100405801F042FA002801D00470001D10BD002010BD0000AC0E0020F8B516460D46044689
:403B0000FFF752FFC0B2801DA04203D20020C0430090F8BDB2B2E9B2684601F04BFA0099481C03D0024AA000526811500098F8BDAC0E0020F8B50746FFF736FF801DC6B2F5
:403B40000A49002005460C680DE06178002907D06188B94202D32078FFF7B4FF002804D1241D6D1CEDB2B542EFD3F8BDAC0E002010B5002801D0FFF795FF10BD70B506461F
:403B80000948002504680BE06178002905D062882078121D0023FFF7AFFF241D6D1CEDB2B542F1D370BD0000AC0E0020F8B5084F064600243D6808E028787968800008585C
:403BC00001F00CFB2D1D641CE4B2B442F4D3F8BDAC0E0020FFB581B00A9F16000C4620D000F0F2F8054604281BD0002F0CD03846FFF7A0FF20492A0151184860002810D034
:403C00003A460499FEF7B1F81B4928010E504618778101980570200406D47D20C000444304E0FF2005B0F0BD6404640C00F0BAF80746042807D000F06BFAA0420BD800F05F
:403C400067FA201A03E0204600F0C8FA0020F06035720020E6E700F05BFA009000F0D4FA00980121001B009000F008F902493A0151180098C860E6E7AC120020F8B50601B3
:403C800016483418217A042903D0E068002802D017E00020F8BD00F03BFA054600F0B4FA00F0A0F804280CD001010C480F18F8680021451900F0E2F80020F860284600F017
:403CC0008DFA6068054D002801D0FFF751FF042020720020A8516081E060DAE7AC120020FEB500266A46304601232549050169180D7A042D02D0C96800291BD000211154E8
:403D0000401CC0B20428F0D300246846005D002830D01B48210108184189476805680291002101604160042241810272C160002E02D015E01354E3E700F054F804280ED045
:403D400001010F4808180190C6680021304600F095F801980021C160304600F03FFA0126002D07D038460299A847002F02D03846FFF7FEFE641CE4B2042CC6D3FEBD00003F
:403D8000AC1200200EB5002005216A460090118150810348694600680EF05BFF0EBD0000B40E0020074A0020010189180B7A042B02D0C968002903D0401CC0B20428F3D38B
:403DC00070470000AC1200200549002002015218127A042A03D0401CC0B20428F6D37047AC12002030B50A4B04200A4C00210A011219157A042D06D0D268002A03D09A42BA
:403E000001D808461346491CC9B20429EFD330BDFFFF0000AC12002070470000F8B500250B4F2E462801C419217A04290AD0042121723E506068002802D0FFF799FE666010
:403E40006681E6606D1CEDB2042DEBD3F8BD0000AC12002030B50020074C05460423020111190B72A5504D60401C4D81C0B2CD600428F4D330BD0000AC12002030B5094C94
:403E800000231A011219157A042D04D0D568002906D02D18D5605B1CDBB2042BF1D330BD2D1AF7E7AC120020002070471CB5002469460C70142001902346054A05480EF0A9
:403EC000CDFE04480068401C00D1FF2420461CBD293F0000B40E00203EB5124A0146FF2000230124126800290DD0012914D0042908D104206946009308814B8110460EF0CA
:403F0000A8FE80B23EBD6846009304814381694610460EF099FEF4E768460093048143816946EBE7B40E002070B545890468416800890300FFF75EFC08280509091E22282F
:403F40002628002005F004FF1EE0022908D0C8B22A4621460CF07EFF2046FFF709FE13E002202A4621460CF075FF2946204600F00DF809E000200EF063FB05E02046FFF7E1
:403F8000AFFE01E0FDF7E8FC002070BD014B0022DB681847B80E002070B5448905680089022803D0032809D0FF2070BD2246094C0023A46829460120A04708E0FFF708F8E2
:403FC000241DA2B200232946022006F0B8FE002070BD0000B80E002070477047024800214160018041807047B80E002070B50C46002186B016460391012802D0022859D133
:4040000016E003A9012006F0EFFE01281BD1039D324621462846FDF7A8FE0095287801900220694608814E816846FFF7B5FF41E0214D002B686809D0049004A9022006F03B
:40404000D3FE01281DD0022006B070BD002812D0298840182146FDF788FE28880024801980B228806988091D884206D12C801348FFF792FF03E00320E6E788421AD96C6077
:4040800018E004986860E278A378110219430B4A698000231060E3565360032313815181A1788170E178C1706178417021780170042028800020C7E7B80E0020EC120020B1
:4040C0003EB515460C46022803D004280CD000203EBD0091019002206946088107484A8100680EF0B6FD07E00CF0B4FE044B0022DB6829462046984701203EBDB40E002056
:40410000B80E0020014AD16090607047B80E0020034801688068081A0A21484300097047F812002010B5FDF7E9FB482204490548FDF71BFE03490120C870002010BD0000F2
:40414000145D0100FC16002010B5FDF7CFFB10BD0020704770B5134C2368002B08D0207B1149C20705D04008400020738868A08070BD88680B4AA18880B29268814203D93E
:404180000A4D691A091802E0814202D2411A5118A160A080A0689842EAD30EF077FD00F013F870BDF8120020C0102E40FFFF000010B508461946FFF7A5FF10BD704710B5B2
:4041C000FFF77EFF10BD000003480021016041608160C16070470000F8120020024610B5FF20002A0CD0FFF7EFFF064C0321207B0843207310010A21FDF78CFC20600020D1
:4042000010BD0000F812002000B504480A21806848430209FFF7D8FF104600BDF81200200248007B8007C00F70470000F812002010B54B490868002802DA4A4B01221A70C8
:40424000022290430860484800694549C00B4031096A0246C907C90F0A4259D0012000F0EDFA3F480E216C30FDF7A8FA3E4820218430FDF7A3FA3C4814219C30FDF79EFA47
:404280003948FF21C131A430FDF798FA3648FF212F31B030FDF792FA33483449BC30FDF78DFA31483249AC30FDF788FA30492E48491CB430FDF782FA2B482E49B830FDF7A0
:4042C0007DFA29482C49CC30FDF778FA26482B490830FDF773FA24482949A830FDF76EFA214828498830FDF769FA1F4826498C30FDF764FA1C481921C9029030FDF75EFA30
:40430000FDF75EFAFDF70EFBC0B2022812D01FE000290BD0002101420AD0114801216030FDF74CFA0120FDF7DDFA97E70121F2E7FF2010BD15491648FDF740FA144815493B
:40434000001DFDF73BFA124800210830FDF736FA54200449C043891C0870002010BD000000F02E40C80E002000002E40320300002F3F00003102000010520000EC16000056
:40438000FA12000031D000003AE300009956000080012E40F80F000070B50646581C80B245086D00002408E0304600F0C1F81055000A1119A41C4870A4B2AC42F4D3D807F7
:4043C00005D0D0182038D15CC47FD454C17770BD30B50A4C002100195B1E07E0541864782502545C2C430480891C89B29942F5DB994201D1515C018030BD000000102E40F3
:4044000010B5FF2000F01AFA0F49FF2048700E481021801D41800121417001700A490020C91C4870FFF704FF04000AD100F02EF907210648FDF7C0F9044807211830FDF76A
:40444000BBF9204610BD0000C80E0020CC112E4070B5002405465B1E0AE0284600F068F8010A161971702D1D1055A41CADB2A4B29C42F2DB9C4203D1284600F059F81055AF
:4044800070BD000070B500210A4D5B1E0AE0541864782602545C344346193480001D891C80B289B29942F2DB994202D1515C4019018070BD00102E40F0B50599091FCFB282
:4044C00000217E1E0BE0541864782502545C2C43164D45192C80001D891C80B289B2B142F1DBFC0712D01C78515C24020F4A0C4381180C809C785D78001D210280B229434B
:4045000084182180001D80B2D9780CE059781A7809021143054A84182180001DD9789B78090280B2194380180180F0BD00102E40014940180088704700102E4010B50B498E
:404540000020487000F0A2F80020FEF7E5FF0020FEF7FEFF07210648FDF72EF9044807211830FDF729F9002010BD0000CB0E0020CC112E4010B50C48007801280FD100F0B0
:4045800065FF00F0DDF8002804D10848016A490849000162054802213030FDF70FF902490020C91E087010BDCB0E002040F02E4010B50B46062812D006DC01280CD00328EB
:4045C00001D1FFF7BBFF10BD0A28FCD00B28FAD105480078107010BDFFF712FF10BD1146184600F041F910BDCE0E0020F8B5244DAC6A0127A007234E002816DA3078062880
:404600000ED1286A384328621F480069F903084381B21D481030FDF7D1F8042000F00EF9174802212830FDF7C7F8E00718D000F085FF01280FD1002000F0A8FF062000F097
:40464000FDF81049FF20C91E48707078002802D1686B384368630A4801212830FDF7ACF8E0050BD53078042802D1052000F0E6F80348FF2101312830FDF79EF8F8BD00003B
:4046800040F02E40CB0E002000002E4010B503212348FDF793F80120FDF720F920483038406A204C80076178800F890001431C480C38FDF783F86078002808D0401E0221E2
:4046C00081401820FDF710FBC000083800E0B82081B21548FDF772F81348032109021438FDF76CF810481149B830FDF767F8612189010F48FDF762F80D480321001FFDF7C4
:404700005DF80C490C48FDF759F80B480B496038FDF754F8084801218838FDF74FF810BD70F02E40CE0E0020D8102E4090890000041E2E40FF0F000058122E40209000001E
:40474000044800684007400F022801D0002070470120704700010B4000B5FFF7F1FF002805D009480168C908C900016000BD0748016A490849000162054801690122D20389
:404780009143016100BD000000010B4040F02E4000002E400849087806280BD148780749002803D1486B400840004863C86A01221043C86270470000CB0E002040F02E40C1
:4047C0000148007870470000CB0E002002484078022800D001207047C80E002000B50300FFF708F8080D050D0B070507090D012000BD032000BD042000BD022000BDFF20D8
:4048000000BD0000074A9168D26889B2064B92B2994204D105498A4201D1012100E000210170704780002E4033D000003FE300000149487070470000CB0E002010B50446AC
:40484000FDF758F8072C01D9FF2C01D102480470FDF74CF810BD0000CB0E00200149487070470000C80E002070B50C460546FDF759F8C0B202280E49287804D0FF2810D00A
:404880004C280CD810E0FF2809D10A4AD0680004800F032801D0087807E09069000A553803E00878207070BD4F382070087070BDCA0E002000002E40F0B50122002834D067
:4048C000002932D00424420600D00524792342065B06D21800D0641C034600221EE00C2516466E43124D00277519AF72104F002ABB51696007D0661EB24209D10D4E861948
:404900007606760E05E05E06760E8027BE1B00E080269B198919521C2E81D2B2A242DED303480549006B002288611046F0BD00008415002079020000D40E002018B50020E3
:40494000694608700A48006900280ED0132149014018047E684604704F21C900054800F059F8A04201D0012018BD002018BD0000D40E002008130020074900200C22424310
:404980005218927A012A05D0401CC0B20628F5D3002070470120704784150020F8B50E000446154609D0194F19497868A04202D94018A04201D38D4201D90120F8BD3146B1
:4049C0002046FDF7C3F900281ED02A4631462046FDF7CBF9E8B200210C224A43D21913895568EE18A6420BD90126641B1B1B9672834209DA1469C01A044AC0B220329676F9
:404A0000491CC9B20629E7D30020F8BD8415002079020000034610B50020024604E09C5C2018521CC0B292B28A42F8D310BD000070B500F063F8084C064A216907480D4652
:404A4000FDF793F905492846FFF736FFFFF776FF207070BD79020000D40E00200813002010B500F04BF810BD002070470020054A002902D0012902D002E0906000E0D0600B
:404A800000207047D40E002070B5084C154608460549E26889182A46FDF767F9E0684019E06028B270BD000008130020D40E00203EB50A226946FFF7E7FF044606480A226B
:404AC00000686946FDF742F9002802D00020C0433EBD20463EBD0000D80E0020002802D0044A914201D2FF20704703494A6108610020704779020000D40E0020024800210E
:404B00008160C16070470000D40E002070B5074C15460548A26880182A46FFF73FFFA0684019A06028B270BD08130020D40E002010B503490A220968FFF7E8FF10BD000057
:404B4000D80E002010B50F4A002313600E4A13600E4B18600E4801600E49012008600E490860000290600E490C4808600D4914300860FF381538506000F0BEF800F0CCF9F3
:404B8000002010BD080F0020F00E00201C0F0020200F00200C0F0020FC0E0020CC160020000F0020140F002000207047014610B50020002910D0094B1A689C685118A1420E
:404BC00009D25868196080188A0704D08A07920F891A091D196010BD002010BDF00E0020F8B50024164E671E321F3D463168136806E01422624310328A58521C1BD0641CF8
:404C00009C42F6D36A1C14D02C461422544322460C3288500C214843FFF7C8FF3168002808510AD031680020103408517068401C70602846F8BD2546E4E73846F8BD000057
:404C4000000F0020F3B50026F64381B000281BDB1E490968884217D80299002914D01B4F142204463F1D54432546396810354859401C09D0FCF73EFE38682F1F4159C3599F
:404C8000994203DBFCF732FE3046FEBD214608310091465801590C20704308180C220299FDF763F80948761C001D0068C159B14200D100260549009A091D8650086841594D
:404CC000491C4151FCF712FE0020FEBDFC0E0020002803DB07490968884202D90020C043704704491422091D096850431030085870470000FC0E0020F0B500200D4A451EC2
:404D00000346171F50600FE014260146714314680E1DA3510C461668083433511668083435511468401C635039688842ECD30020F0BD0000000F0020F3B50026F64381B0CC
:404D4000002841DB2349096888423DD8029900293AD0204F142204463F1D54432546396810354859401C2FD0FCF7C4FD3868415900292BD0211D009146580C21005971437D
:404D80000F46C1190C220298FCF7EFFF11480021001D0068761C00590C34C0190160416081600C48001D00680159B14200D100260849009A091D865008684159491E41512E
:404DC000FCF794FD0020FEBD3046FEBDFCF78EFDFAE70000FC0E0020FEB504460D4600201E49089E0860471E009001900290002C11D0486885420ED2002A0CD0002E0AD02B
:404E0000642E08D808460C3001681C2068430C18207A002801D03846FEBD0120226020721846FFF7DDFE6060401C13D06681A6810A4827610C3067610179A94200D205713A
:404E40000021684601810A462846029B00F040F82846FEBD00202072DDE70000080F002038B50124009400F039F838BDFEB50027164EFF433D4600240EE01C20316860433F
:404E80000818017A002906D04068FFF721FF002801D0254603E0641C3079A042EDDA681C12D01C2130684D434419FCF723FD69466068FFF741FF0546FCF718FD002DD9D16F
:404EC000216868468847D5E7FEBD0000140F002038B50024009400F001F838BD1FB500220C49541E0A60002811DB496888420ED808491C220C31096850430818406801A991
:404F0000FFF7A0FE401C02D0002004B010BD2046FBE70000080F0020F0B50021114A4D1E174611710C3F0B46BD6016E008461C2460431668041D3551146806462350146868
:404F40000836A3551468361DA353044616680A34335318301468491C255078688142E5D30020F0BD140F002038B500210091002811DB0F49097888420DDA0D4D04010C35C4
:404F800029680859002807D0201D0818694600F06FF9002801D0002038BDFCF7ABFC28680F34015D491E0155FCF7A0FC009838BD240F0020F7B582B0002502986E1E066008
:404FC0002E48D21C024017462D4A2C4610460C380178106805E02301C358002B0FD0641CE4B28C42F7D3711C28D03401211D40180191039900F02AF900281FD101E0264668
:40500000F1E71F48016820460C300F521C480399026820460E30115419480399026820460F3011540398784300F0A0F8144900280968085102D00024009011E001251AE01D
:405040000F48016801980818009900F02CF9002801D0012502E00098C0190090641CE4B203988442ECD3002D05D10298066004480179491C0171284605B0F0BDFCFF000066
:40508000300F0020F8B50D4600216A468C461180002839DB23490978884235DA214B04010C3319680A59002A2ED020460C300B5A801C0E5C184670438018954224D3854254
:4050C00022D2002006E007465F43BF18AF4206D0401CC0B2B042F6D36046002814D0114E271DC8190C366A46294600F006F900280AD168460088012808D030682946C01900
:4051000000F0D1F8002803D00120F8BD0020F8BDFCF7F0FB30680F34015D491C0155FCF7E5FBF3E7240F0020F8B50F46002400F031F8002817D10C4900220B460C334A603E
:405140000EE021011D680E466A501D680C36AA53B61C1D680F31AA551D68641C6A54E4B2BC42EED31A71F8BD240F002000280BD0C01C074A8108506889005388411899427E
:4051800003D89368516018187047002070470000240F0020F8B5064600200F4D009029700C0121466846FEF7EBFB00280CD129460C3100980860301B001F84B22146684656
:4051C000FEF7DEFB002801D0FF20F8BD6C800098A8600020F8BD0000240F0020F8B5002827DB19490978884223DA174C05010C342168485900281CD028460C30085A00905C
:4052000028460E300E5C401C0E5420682F1DC01900F064F800280CD12068002445590EE0094829460C300068C01900F03CF8002801D00120F8BD00982D18641CE4B2B4424B
:40524000EED30020F8BD0000240F002030B50D4604000BD0A800FFF789FF6060002805D000202570C0436080002030BD012030BD70B50D46040005D0002D03D00220205EA7
:40528000002801DA012070BDFCF734FB0221615E60688900405828606088401E6080FCF725FB002070BD70B50D46040007D0002D05D002212078615E401E814201DB0120B5
:4052C00070BDFCF717FB6088401C00B26080616880000D50FCF70AFB002070BD10B5040009D0227800216068FCF748FD0020C0436080002010BD012010BDF0B500231D4655
:40530000002802D00224045F0AE00120F0BD46689F00F6598E4201D1012503E05B1CDBB29C42F4DA15700020F0BD00000148007870470000380F00207CB505460024FDF776
:4053400047FEA8796946087000A8062229460130FCF70BFD0021684604F0C0FF0C2806D0072806D01F2806D0122806D006E0022404E0042402E0272400E0012420467CBD8E
:4053800010B502280BD0032802D0042809D102E000F046F905E000F0F1F9FF2801D100F001FAFFF70DFAFFF719FA10BD10B500F029FAFFF705FAFFF711FA10BD70B504468F
:4053C0000025FDF705FE002C06D0A079012803D8214602F097FD00E00125284670BD01460120002902D05020088000207047000001460120002905D0034854220078504380
:4054000008800020704700003A0F002010B502460D49FE204870032410460DF03DFF002810D10DF0E1FE00280CD105F039FD002808D100F0F7FB002804D105F0F5F90028B5
:4054400000D10024204610BD380F002002480021018280210180704700102E4010B5FF240DF092FF002804D10DF0BEFE002800D1002403490020486002494872204610BDC3
:40548000380F00200418002070B50025044600280ED0A07901280BD8FDF79AFDA0790028204602D003F036F903E003F00BF900E00125284670BD0000014610B50120002993
:4054C00004D006220248FCF750FC002010BD0000440F002001460120002903D00878024908700020704700003A0F002010B5002403F03EFA002800D00124204610BD00007C
:4055000010B50446FDF764FD204602F0C5FE02490220087610BD00004417002010B50446FDF756FD2278A178607802F0C7FE02490120087610BD0000441700200148007A2C
:405540007047000004180020014A002192681047380F002008B500226B461A7026280CD0094A342852680BD0352805D1900703D50021352005F07CFD08BD19462620F9E7BC
:40558000D007F9D03420F5E7380F002001490872704700000418002070B50E46050001D0002400E00C4C002C11D0E28A500609D5D107C90F022003F04BF9E08A4021884306
:4055C000E08204E0D107C90F012003F041F93146284602F0F3FD70BD64170020F8B50546002004460D4E009013E022466946284601F0EEF80098002801D00DF02FFEA87861
:40560000214602F0BDFBA878214602F0ABFB641CE4B2308AA042E8D8F8BD000030180020F8B54E4CFFF7CCF8012847D14C480078002843D002F04AFD00283FD004F0F0FAD4
:4056400000283BD0474E7078C00703D000F01CFD012833D0307E00287DD17078002500285BD0000706D540488089070B00F02EF9384370D13B484178684604F017F9217947
:405680003A4CA2788918C9B2814262D802F01EFD002860D0344860300789324E203602F05FFB6846008802F089FB02F025FC30490988884203D10120FFF7C0F84BE02D4937
:4056C000012008702748807B00281DD0002F1BD04036F07E002817D123486030008821494000C031498981420AD26078002807D103F0DCF82049088A032212021043088245
:405700002078002800D0257002F08EFB0120FFF78FF800F025FC174C15E002F0D7FC002819D0102402F0E8FB214602F0D1FA02F045FB104C0120207002F076FB0020FFF707
:4057400077F800F00DFC20780128B4D1FFF704F825700020F8BDFF20F8BD00003C170020C80E002044170020A0102E405E0F0020700F00204A0F0020E0112E4010B5084830
:40578000FF244078002809D102F0A0FC012805D1FEF7F0FE0720FFF751F80024204610BD4417002038B5FFF70BF8012801D0002038BD02F08BFC00280AD0114C6078C007F8
:4057C00003D000F061FC012802D0207E002801D0FF2038BD617800290FD0684604F066F8022806D96846008802F0E8FA012002F025FB0320FFF722F8D9E70020F7E70000CB
:405800004417002038B51E4CFEF7DAFF042813D0052811D0062812D003282AD007280AD100206946087002460120FEF7C1FEFEF7C7FF0128FBD138BD00F0B2FB38BD02F0DF
:4058400015FB00F0ADFB02F091FB8007800F0228F4D10C4841880029F0D05B21095D0029ECD101210170A07D0140022002F0F0FF38BD02F0FFFA0120FEF7E0FF38BD000071
:40588000641700205E0F0020F8B50646002403F04DF80546304603F063F803460A480021068A0DE001228A401046174628401F40002803D0002F01D1224394B2491CC9B235
:4058C0008E42EFD82046F8BD3018002070B500252C460A4E03E0002C01D0002000E030460079002803D02046FFF7CEFF0543641C2406240EEFD0284670BD0000641700206E
:405900001CB50020694648706846FDF791FB01AA69460A20FEF74CFE6946042008561CBD70B50D4601F03AFB04000BD02079002808D0FDF74DFBE178A0782A4602F0F0FC03
:40594000002070BD022070BD01480078704700003C1700204030C07E002800D00120704700B500F001F800BD902148430749084A40186030417F491CC9B24177D28991427B
:4059800001D300214177C8B270470000441700203018002013B501F001FB04000BD001F09EFE002807D0214601AA0A310620FEF7FFFD00201CBD02201CBD000010B50C4697
:4059C00001F0ECFA00280AD001F089FE002806D0224604490A20FEF7EBFD002010BD022010BD000025170020F3B581B0074601460026029802F092FF0446002F01D0002545
:405A000000E0154D002D21D0284601F0FDFA032C04D13946029802F0DDFF06463846029902F0A0F9032C06D0002C10D00121384601F0F0FB03E03146384603F0D1F9284645
:405A400002F07EF80221284602F094F8FEBD3846029902F087F9FEBD6417002010B5044600F066FA002804D103F084FE002801D00C2010BD2078611C02F054FDFF2801D000
:405A80001F2010BD02F09AFDFF280AD02178621C02F0F0F8044821780068026B601C904710BD072010BD0000840F002010B503F061FE002801D00C2010BD02F015FD034886
:405AC0000068C06A8047002010BD0000840F002070B50D46044610210DF000FB1021601806460DF0FBFA334610221946204603F087FE102130460DF0F1FA02202870204644
:405B000004F0C8FD70BD0000F8B504464078217802028006870FE0781143A67809050002090D0643084601F039FA00210546F2B2002812D0002C10D0022F0ED0032F0CD029
:405B4000002A0AD00279092A07D0002A05D0134A5A23527E1B5C9A4207D82889002104F0CEFC20460DF07AFBFF21002914D10C48224600682946436930469847C0B2FF28FE
:405B80000AD128464030817EF2B2491C8176FF232146284600F0E3F8F8BD0000FC160020A00F00200020704710B5044603F0E2FD002801D00C2010BD2078611C02F0B2FC56
:405BC000FF2808D002F0EAFB044821780068426B601C904710BD1F2010BD0000840F002010B500F06BF904F01FFE002010BD10B5044600786178E2780843A1781143084322
:405C0000217908436179084305D003F0A5FD002803D00C2010BD122010BD204602F07AFD002010BD10B5FBF77DFE02F0A1FE044803F034FF02F0BCFB012000F003F810BD8A
:405C40000C170020F1B586B003A8009005A8019028489F22817A114081726846FDF734FD002845D169460989C90705D0224806990068C2686846904769460989890706D559
:405C8000002835D11D480068816A0698884700282ED11B4E0025757075737571F575357675767575B570F570B5713746F5730120D03738731F20F880FF2130467972A030CF
:405CC0000176457600F0DCFA00242046069901F0B1FC002803D1641C2406240EF5D0FD720749BD72B573C0310D704D704D600D7207B0F0BDFC160020A00F0020840F0020C3
:405D00004417002070B505460E46084602F00EFE0446304602F024FE0121A9400A46224001400A4301D0012070BD002070BD10B50446084602F014FE0121A140014201D0D5
:405D4000012010BD002010BD10B5FEF739FD032804D102F08FF80120FEF770FD10BDFEB51C4616460F46054601F0EAFEA878FFF7F7FD02460190334639460094284600F0D8
:405D80000DF8002808D1A8780199FFF705FCFF2C02D138460DF062FAFEBD0000FFB585B005460E980C46FF2810D02B49C00009680A5840180179C0795278814201D90126C9
:405DC00001E09006860F6846038108E06078A1788006860FE0780002014368460181284601F088FC070007D021462846079A00F083FC384609B0F0BD304600F031FD04AED3
:405E00000346039002AA29460096204600F0BDFB3C20405D002818D0284601F06BFC012813D0684600890096C0B20190A878231DFF22079902F076F968460089039BC2B251
:405E4000A878079902F0E2FCD3E7684600890021C0B20091E9E700009C0F0020F8B5002600253046FFF710FD07001DD090201149704340186030447F12E0601CFBF74AFE6D
:405E8000CCB23846E040C007C00F07D02146304601F05EFF21463046FFF7A6FD6D1CEDB20548018AA942E8D8761C3606360ED7D0F8BD0000441700203018002010B502F005
:405EC00077FA0020FFF7BEFE0DF05EFA002010BDF8B5002400F0D2F80123012800D10124104F00203E4620360425082203E0002801D0002100E031460979002907D00129A3
:405F00000BD002290BD0114681402143CCB2401C0006000EEBD07C70F8BD1C43F7E72C43F5E700004417002010B5FFF7D1FF10BD10B5044604F0CAFD002802D1601C00F02E
:405F400001F810BD1CB500240094062269460194FBF7FCFE002800D1122420461CBD000070B50E4CFBF721FC0546FEF729FC062802D02078012803D02846FBF71AFC70BDE2
:405F8000FBF726FD2846FBF714FCFEF719FC0628F5D020780028E5D170BD00004A0F002010B5FBF702FC0446FEF70AFC012809D0FEF706FC022805D0FBF70AFD2046FBF700
:405FC000F8FBEEE72046FBF7F4FB10BD10B50B4681791943817103D08078114602F0E4FB10BD10B582798A43827102D1807802F0EFFB10BD30B50C4C0220A28A0B4B9978C1
:40600000002901D0022906D11D785B78EB18282B01D9032002E0032900D101205105490DC0020143A18230BDC0112E40540F002000B500F029F8002807D0012805D0032837
:4060400001D0042801D0002000BD012000BD014600B50020C90701D000F010F800BD014600B50020C90701D000F008F800BD000001480068704700004C0F00200148008807
:40608000000A704720102E400448008B410501D5042070474007800F7047000000102E4001484068704700004C0F002038B50446000610D5FFF7E8FF01280CD1684601F0E1
:4060C000E9FE6846007800F01BFB012001F0A0FD0220FFF729FF600708D507480179012904D1002101712620FFF734FA0348006801692046884738BD580F0020840F002014
:4061000010B501460A4A007800241070FFF7B6FF0128084603D002F069FA204610BD00F0E7F80400F9D1034801210170F5E70000540F00200418002070B50446FFF79EFF4E
:40614000002801D00C2070BDA27B01211F48002A827801D00A4301E05208520082706279012A14D0C17849084900C170184D2868016820468847207901280CD061882088B6
:4061800003F0AAF82080207904280FD015E0C2780A43C270EAE72868C168E01D8847E01D02F0A4FA0B48808C208006E02868C168E01D8847E01D02F099FA074920798870A8
:4061C000204602F021FA002070BD000044170020840F0020FC160020540F002008B50178FFF74CFF814201D10C2008BD002914D0072069460870FFF71BFF012807D1012171
:40620000684600F0D5F8012801D0092008BDFFF7F1FE02F02DFA012011E0FFF709FF012806D1684601F036FE6846007800F09CFA02F014FAFFF722FF0028FBD10220FFF75B
:4062400073FE002008BD000010B501460A4A007800245070FFF712FF0128084603D002F083FA204610BD00F05DF80400F9D1034801214170F5E70000540F0020041800204D
:4062800038B568460CF080FF002801D01F2038BD01210098C90201804180002505714571857107214173857302F0AEF9009C202200212046FBF762FD25702A460021601CC8
:4062C000FBF75CFD204602F091F9204602F04CFA00980CF0C3FF062200210448FBF74EFD02480C388560002038BD0000580F0020F8B504460025684600950CF045FF0028D5
:4063000001D007250AE0064E009830602278611C401CFBF72AFD3168207808702846F8BD4C0F0020F8B504460025684600950CF02BFF002801D007250AE0064E00987060D7
:406340002278611C401CFBF710FD7168207808702846F8BD4C0F00200346084800B5834209D8184600F01AFE002804D00089984201D1012000BD002000BD0000FF0E0000D1
:40638000074A9179491C8906890E917138220A4092014907090E1143084302490840704744170020FF0E0000C006C00E70470000F8B507460E4600240D4803E0002C01D0F4
:4063C000002500E005462979002905D0641C2406240EF3D00020F8BD0021204601F02AF92E712046FFF7CCFF28813C700120F8BD6417002010B503F04FFA0222002100F0DC
:4064000003F801F081FF10BD10B5094B40074907000F090F185A595A40185043C0086421FBF778FB002800D1012080B210BD00005C5D0100F7B53D20405C88B015460C462D
:40644000002802D02878042802D200200BB0F0BD6946087200262046FFF77CFA012800D00126204603A938300191009023460327A17E34333246206A03F02AFB02A808999F
:4064800000900B46019120463A4603A9243003F07FF902466846007A2870204601F0B6F81046D3E7FFB587B00C4605461078694608723D20005D1746002826D00026204601
:4064C000FFF748FA012800D00126204603A93830019100902346A17E34333246206A03F0F7FA02A80090291D019120462B1D03A924300A9A03F04CF902006846007A388055
:4065000002D1204601F082F810460BB0F0BDF0B505463C20405C89B016460C4600280CD0307869460873002806D000272046FFF711FA012803D003E01F2009B0F0BD01271C
:4065400003200890204604A93830019100902346E17E34333A46E06903F0BAFA6846007B03A928180290009120462B46019504A92430089A03F058F902466846007B307087
:40658000204601F04DF81046D7E7FFB505463C20405C89B016460C46002810D0084601F0A9F801280BD0308869468883002809D000272046FFF7CEF9012805D005E00020A1
:4065C0000DB0F0BD0220FBE70127204603A93830019100902346E17E34333A46E06903F077FA291D2B1D07A8129A6D4607C5204603A924300C9A03F017F902466846808B95
:406600003080204601F00CF81046D9E770B50D460446FFF79FF901280AD0E87AA97A00020143A07801F030FD012808D0002070BD00222421204602F0A1FD242070BD282180
:406640004C200155204600F0B1FB282070BD0000002801D0002000E003484030C07F012800D0002070470000641700200146002049070ED50021084B03E0002901D0002276
:4066800000E01A461279022A04D0491C0906090EF3D0704701207047641700200146002049070ED50021084B03E0002901D0002200E01A461279022A04D0491C0906090E34
:4066C000F3D07047012070476417002010B5044680346068002803D00CF0D4FD0020606010BD4030417070474030817070474030017070470171704792001018C166704764
:4067000070B53C2501F09CF9040004D020460021433001F059FCFF222946204600F0E8FB002C02D0A07801F00DF970BD10B5002801D0002000E00348002802D0008903F0B3
:4067400025FF10BD6417002010B5002801D0002000E00448002804D00179072901D100F047F810BD6417002010B501F069F9002802D0807801F0E6F810BD002070470000F7
:4067800070B50546008A00281ED01049F122897A1140C90618D5294640314A8A098A521C4A4392B2D10800D10121540801E0621A94B2A042FBD9FEF7B9FD012804D1298AEA
:4067C000A878224601F036FD70BD0000FC16002010B50023054C0B60248A944204D992001018C26E0A60C36610BD00003018002038B5044600200090A079002814D140206A
:40680000015D052901D00E290ED168460CF0CCFC002809D12046009902F08EFC03481021C28A2046FFF7D2FB38BD0000FC16002010B50B4604460146184602F0FFF80028C8
:4068400002D020460CF014FD10BD13B5044601AA11460620FDF7ACFE6846818861811CBD002800D10220704770470000F8B504462346401D543300909A1EA078911E01F0EF
:4068800025FB25464035A88A298A8000FBF742F9401E81B2688A884203D96982A07802F011F8698A8C20015120460021433001F08BFB27480088E88102F0EEFFE989891C67
:4068C0008AB26179FFF7A0FD01F01EFD02F0E4FF2A8A6179FFF798FD074601F009FD688A002806D01B49088A032212021043088202E0002001F0DAFF1648803801886E8A52
:40690000002E0CD0304648431349FBF7EDF90004000C01D0401C80B21049488002E00F4800214180288A704381B2A07801F02AFFFF2228374932B9B21346204602F0D0FCC0
:40694000E98AA07801F09EFEA07801F02BFAF8BD80102E40E0112E40710200005E0F00207FB504468034616805460E46183108226846FBF7FAF931462031082202A8FBF791
:40698000F4F9102168460CF0A9FB6068102108300CF0A4FB60682B46083024331022694602F02EFF7FBD10B504460821FFF719FB10212046FFF715FB207905281FD00628D9
:4069C0001DD008281AD12189002003F057FD072020712046FEF7BEFF014620464030012913D00E21017000210176204600F0BCFF2046FFF76BFE2046FFF7C2FE10BD2089E4
:406A00000122002103F01EFDE1E70521EAE70000FFB581B01F4604460821FFF7E2FA10212046FFF7DEFA2079082803D0092804D0042203E00422012501E0092200252046C4
:406A400000F044FE264600204036307022712046FFF73CFE0398002D02D0012808D00BE001280AD120890022029903F0EBFC04E02189029803F002FD012700203076012F17
:406A800004D0204600F070FF05B0F0BD02983073204602F09FFB054605480121C28A2046FFF794FA002DEFD109202071ECE70000FC16002070B50C460546FEF74BFF0128E6
:406AC00009D108212846FFF78CFA0023012221462846FFF79DFF70BD10B5044600F0F6FD2046FFF7F3FD00214034217010BD70B505461A24FEF72EFF012809D10821284634
:406B0000FFF76FFA0023012221462846FFF780FF70BD0000F8B50446002000900E4668460CF042FB002801D00D20F8BD8420005908212030009D00F02CFA20460421383060
:406B400000F027FA002E02D1204600F0FBFD2946204602F080FA0E480821C28A2046FFF735FA204600F071FF25464035002808D0204600F023F8002801D00920287000202D
:406B8000F8BD08202870204600F0DAFFF7E70000FC160020014610B540310A460978082906D0092907D00A2901D100F091F810BD0B20107010BD00F001F810BD70B50446DB
:406BC000007925464035052805D0062803D008280FD00C2070BD03220621204602F0CEFA0D480821C28A2046FFF7F0F91120287010E006202873204602F0ECFA0646AA8A1E
:406C00000A20424301212046FFF7E0F9002E01D109202071002070BDFC16002038B504460020009068460CF0BFFA002801D00D2038BD2046009D00F0C3F9082020712046E2
:406C400000F080FD2946204602F038FA00213D2001550F2040210855204600F071FF002038BD00B5024600F031FD10214032117000BD10B50446FEF76DFE012809D0402045
:406C8000005D112805D100231A4606212046FFF7BFFE10BD10B5FFF786FE10BD38B504460021684600910CF07FFA00280CD12046009902F084FA05480821C28A2046FFF72E
:406CC00085F90D204034207038BD0000FC16002038B504460021684600910CF065FA002801D00D2038BD2046009902F05DFA05480821C28A2046FFF769F90C2040342070B9
:406D0000002038BDFC16002000787047F8B5002569460D70002801D0002400E01F4C002C18D0204600F0DBFC002813D0207903280BD005280CD026464036B18AA07801F05D
:406D40002BFDB078012806D01DE0042020711DE006202071F8BD0021204601F08CFE274680373868002802D00CF08CFA3D600020B0702079072802D12046FFF701FD022172
:406D8000204600F0F7FE20790428E3D1207A694608703420FEF7DEFBF8BD00006417002010B54C22115400F052F810BD10B50446FF21FFF716F909202071A07801F012FD37
:406DC00010BD000038B5FF216A461180002801D0002400E00B4C002C12D011460620FDF7E7FB684601882046FFF72FFD204600F087FC002804D104480068C169204688471B
:406E000038BD000064170020A00F002010B504468079002809D022214C200155FF212046FFF7DFF8204600F012F810BD10B5037902464032002B03D01173092B02D003E0FF
:406E4000002100E02221117300F001F810BDFEB504460089002700902781207926464036002817D0012815D002280AD112E002AA01A9204601F0D0FD002807D101980CF011
:406E8000F7F9204601F0F0FD0028F0D02046FEF7A5FBB776254680352868002802D00CF0F1F92F606868002802D00CF0EBF96F60317B002919D0009800F064F8A07800211B
:406EC00000F092FF2046FFF795FAA07801F0C6F8A07800F037FDFF212046FFF782F80B20FFF722F800F068FCFEBD1F213173E2E7F8B517460E46054602F0CAFC04003CD0C5
:406F000020460C3001F050F82046062200211830FAF734FF2046062200211230FAF72EFF1648224600683946436A28469847074626702846FEF70EFD012148406070002DAD
:406F400010D02889608028464030C1782171002E0FD169796171018AE180418A2181808A608106E00648008BC005C00F2071002060803946204603F004FAF8BD840F0020CF
:406F800000102E400A4610B50146002003F016FB10BD10B50BF07EFE10BD000000B50146FFF702FA002801D0002000E00348002802D002898A4200D0002000BD6417002032
:406FC00038B5044680346068002806D168460CF0FBF8002801D100986060606838BD000010B5014600F086FB0128887802D0FEF7BBFC10BD90214843024940186030007F54
:4070000010BD00004417002070B5054604464035A87F012811D1A1789020084A484380186030067F3046FEF76DFE002805D10220A877A078314601F0CBF870BD4417002054
:4070400010B50C4CA07A002813D0FEF707FF0A48027F417F408B00F0B7FB012809D10020A07200F02DFF05498989090B01D000F03BFA10BD1418002044170020A0102E4066
:4070800070477047490510B5490F0B00FCF7B2FB060704080C0C0F073E21FFF781FE10BD0821FFF7C3FE10BDFFF7D1FE10BDFFF7ADFE10BDF8B507460025002D01D0002674
:4070C00000E0204E00F0A6FE3046403044890021418100F0C3FE304600F001FB01282BD1A00702D52846FFF711FEE00602D52846FFF768FEA00601D5FEF7B0FE600601D50D
:4071000000F014FB200602D5284600F01DF8600702D5284600F02CFA380402D52846FFF713FB780402D52846FFF700FBE00703D021463046FFF7A6FF6D1C2D062D0EBCD032
:40714000F8BD000064170020F8B5002801D0002400E0284C002C4BD025464035A878012846D1FF278820493700593E46002805D02149897A890601D5878AC68A2046FEF764
:40718000E9FB012834D002F087FB2A8A6179FFF73BF9009001F0ACF800983346283081B23A46204602F09CF8E98AA07801F06AFA12480188688A124E002810D04843114963
:4071C000FAF792FD0004000C01D0401C80B27080A07DC107C90F002001F03AFB01E000207080288A698A484381B2A07801F0CAFAF8BD000064170020FC16002060112E402B
:407200005E0F0020710200000149096809680847A00F002070B50D460026194A0146002801D0002401E014462034002C26D0204600F060FA01280AD19020484380186030D7
